{"abi":[{"type":"constructor","inputs":[],"stateMutability":"nonpayable"},{"type":"function","name":"UPGRADE_INTERFACE_VERSION","inputs":[],"outputs":[{"name":"","type":"string","internalType":"string"}],"stateMutability":"view"},{"type":"function","name":"getAgentValidations","inputs":[{"name":"agentId","type":"uint256","internalType":"uint256"}],"outputs":[{"name":"","type":"bytes32[]","internalType":"bytes32[]"}],"stateMutability":"view"},{"type":"function","name":"getIdentityRegistry","inputs":[],"outputs":[{"name":"","type":"address","internalType":"address"}],"stateMutability":"view"},{"type":"function","name":"getSummary","inputs":[{"name":"agentId","type":"uint256","internalType":"uint256"},{"name":"validatorAddresses","type":"address[]","internalType":"address[]"},{"name":"tag","type":"string","internalType":"string"}],"outputs":[{"name":"count","type":"uint64","internalType":"uint64"},{"name":"avgResponse","type":"uint8","internalType":"uint8"}],"stateMutability":"view"},{"type":"function","name":"getValidationStatus","inputs":[{"name":"requestHash","type":"bytes32","internalType":"bytes32"}],"outputs":[{"name":"validatorAddress","type":"address","internalType":"address"},{"name":"agentId","type":"uint256","internalType":"uint256"},{"name":"response","type":"uint8","internalType":"uint8"},{"name":"responseHash","type":"bytes32","internalType":"bytes32"},{"name":"tag","type":"string","internalType":"string"},{"name":"lastUpdate","type":"uint256","internalType":"uint256"}],"stateMutability":"view"},{"type":"function","name":"getValidatorRequests","inputs":[{"name":"validatorAddress","type":"address","internalType":"address"}],"outputs":[{"name":"","type":"bytes32[]","internalType":"bytes32[]"}],"stateMutability":"view"},{"type":"function","name":"getVersion","inputs":[],"outputs":[{"name":"","type":"string","internalType":"string"}],"stateMutability":"pure"},{"type":"function","name":"initialize","inputs":[{"name":"identityRegistry_","type":"address","internalType":"address"}],"outputs":[],"stateMutability":"nonpayable"},{"type":"function","name":"owner","inputs":[],"outputs":[{"name":"","type":"address","internalType":"address"}],"stateMutability":"view"},{"type":"function","name":"proxiableUUID","inputs":[],"outputs":[{"name":"","type":"bytes32","internalType":"bytes32"}],"stateMutability":"view"},{"type":"function","name":"renounceOwnership","inputs":[],"outputs":[],"stateMutability":"nonpayable"},{"type":"function","name":"transferOwnership","inputs":[{"name":"newOwner","type":"address","internalType":"address"}],"outputs":[],"stateMutability":"nonpayable"},{"type":"function","name":"upgradeToAndCall","inputs":[{"name":"newImplementation","type":"address","internalType":"address"},{"name":"data","type":"bytes","internalType":"bytes"}],"outputs":[],"stateMutability":"payable"},{"type":"function","name":"validationRequest","inputs":[{"name":"validatorAddress","type":"address","internalType":"address"},{"name":"agentId","type":"uint256","internalType":"uint256"},{"name":"requestURI","type":"string","internalType":"string"},{"name":"requestHash","type":"bytes32","internalType":"bytes32"}],"outputs":[],"stateMutability":"nonpayable"},{"type":"function","name":"validationResponse","inputs":[{"name":"requestHash","type":"bytes32","internalType":"bytes32"},{"name":"response","type":"uint8","internalType":"uint8"},{"name":"responseURI","type":"string","internalType":"string"},{"name":"responseHash","type":"bytes32","internalType":"bytes32"},{"name":"tag","type":"string","internalType":"string"}],"outputs":[],"stateMutability":"nonpayable"},{"type":"event","name":"Initialized","inputs":[{"name":"version","type":"uint64","indexed":false,"internalType":"uint64"}],"anonymous":false},{"type":"event","name":"OwnershipTransferred","inputs":[{"name":"previousOwner","type":"address","indexed":true,"internalType":"address"},{"name":"newOwner","type":"address","indexed":true,"internalType":"address"}],"anonymous":false},{"type":"event","name":"Upgraded","inputs":[{"name":"implementation","type":"address","indexed":true,"internalType":"address"}],"anonymous":false},{"type":"event","name":"ValidationRequest","inputs":[{"name":"validatorAddress","type":"address","indexed":true,"internalType":"address"},{"name":"agentId","type":"uint256","indexed":true,"internalType":"uint256"},{"name":"requestURI","type":"string","indexed":false,"internalType":"string"},{"name":"requestHash","type":"bytes32","indexed":true,"internalType":"bytes32"}],"anonymous":false},{"type":"event","name":"ValidationResponse","inputs":[{"name":"validatorAddress","type":"address","indexed":true,"internalType":"address"},{"name":"agentId","type":"uint256","indexed":true,"internalType":"uint256"},{"name":"requestHash","type":"bytes32","indexed":true,"internalType":"bytes32"},{"name":"response","type":"uint8","indexed":false,"internalType":"uint8"},{"name":"responseURI","type":"string","indexed":false,"internalType":"string"},{"name":"responseHash","type":"bytes32","indexed":false,"internalType":"bytes32"},{"name":"tag","type":"string","indexed":false,"internalType":"string"}],"anonymous":false},{"type":"error","name":"AddressEmptyCode","inputs":[{"name":"target","type":"address","internalType":"address"}]},{"type":"error","name":"ERC1967InvalidImplementation","inputs":[{"name":"implementation","type":"address","internalType":"address"}]},{"type":"error","name":"ERC1967NonPayable","inputs":[]},{"type":"error","name":"FailedCall","inputs":[]},{"type":"error","name":"InvalidInitialization","inputs":[]},{"type":"error","name":"NotInitializing","inputs":[]},{"type":"error","name":"OwnableInvalidOwner","inputs":[{"name":"owner","type":"address","internalType":"address"}]},{"type":"error","name":"OwnableUnauthorizedAccount","inputs":[{"name":"account","type":"address","internalType":"address"}]},{"type":"error","name":"UUPSUnauthorizedCallContext","inputs":[]},{"type":"error","name":"UUPSUnsupportedProxiableUUID","inputs":[{"name":"slot","type":"bytes32","internalType":"bytes32"}]}],"bytecode":{"object":"0x60a06040523461003e5761001161004d565b610019610043565b6131546100a88239608051818181612a1a01528181612a7f0152612c26015261315490f35b610049565b60405190565b5f80fd5b610055610099565b565b60018060a01b031690565b90565b61007961007461007e92610057565b610062565b610057565b90565b61008a90610065565b90565b61009690610081565b90565b6100a23061008d565b60805256fe60806040526004361015610013575b610afd565b61001d5f3561010c565b80630d8e6e2c146101075780631b7cabd6146101025780633d659a96146100fd5780634bf3158c146100f85780634f1ef286146100f357806352d1902d146100ee578063715018a6146100e95780638d5d0c2d146100e45780638da5cb5b146100df578063aaf400c4146100da578063ad3cb1cc146100d5578063bc4d861b146100d0578063c4d66de8146100cb578063f2fde38b146100c65763ff2febfc0361000e57610ac1565b610a05565b6109d2565b61099d565b610968565b610896565b6107fe565b6107a7565b610756565b610721565b6106d5565b61057e565b61044d565b61033e565b61019a565b60e01c90565b60405190565b5f80fd5b5f80fd5b5f91031261012a57565b61011c565b5190565b60209181520190565b90825f9392825e0152565b601f801991011690565b61017061017960209361017e936101678161012f565b93848093610133565b9586910161013c565b610147565b0190565b6101979160208201915f818403910152610151565b90565b346101ca576101aa366004610120565b6101c66101b5610b51565b6101bd610112565b91829182610182565b0390f35b610118565b5f80fd5b90565b6101df816101d3565b036101e657565b5f80fd5b905035906101f7826101d6565b565b5f80fd5b5f80fd5b5f80fd5b909182601f8301121561023f5781359167ffffffffffffffff831161023a57602001926020830284011161023557565b610201565b6101fd565b6101f9565b909182601f8301121561027e5781359167ffffffffffffffff831161027957602001926001830284011161027457565b610201565b6101fd565b6101f9565b6060818303126102e957610299825f83016101ea565b92602082013567ffffffffffffffff81116102e457836102ba918401610205565b929093604082013567ffffffffffffffff81116102df576102db9201610244565b9091565b6101cf565b6101cf565b61011c565b67ffffffffffffffff1690565b610304906102ee565b9052565b60ff1690565b61031790610308565b9052565b91602061033c92949361033560408201965f8301906102fb565b019061030e565b565b346103735761035a610351366004610283565b93929092610f73565b9061036f610366610112565b9283928361031b565b0390f35b610118565b90565b61038481610378565b0361038b57565b5f80fd5b9050359061039c8261037b565b565b6103a781610308565b036103ae57565b5f80fd5b905035906103bf8261039e565b565b60a081830312610443576103d7825f830161038f565b926103e583602084016103b2565b92604083013567ffffffffffffffff811161043e5781610406918501610244565b929093610416836060830161038f565b92608082013567ffffffffffffffff8111610439576104359201610244565b9091565b6101cf565b6101cf565b61011c565b5f0190565b346104825761046c6104603660046103c1565b95949094939193611792565b610474610112565b8061047e81610448565b0390f35b610118565b60018060a01b031690565b61049b90610487565b90565b6104a781610492565b036104ae57565b5f80fd5b905035906104bf8261049e565b565b906020828203126104da576104d7915f016104b2565b90565b61011c565b5190565b60209181520190565b60200190565b6104fb90610378565b9052565b9061050c816020936104f2565b0190565b60200190565b9061053361052d610526846104df565b80936104e3565b926104ec565b905f5b8181106105435750505090565b90919261055c61055660019286516104ff565b94610510565b9101919091610536565b61057b9160208201915f818403910152610516565b90565b346105ae576105aa6105996105943660046104c1565b6119cc565b6105a1610112565b91829182610566565b0390f35b610118565b5f80fd5b634e487b7160e01b5f52604160045260245ffd5b906105d590610147565b810190811067ffffffffffffffff8211176105ef57604052565b6105b7565b90610607610600610112565b92836105cb565b565b67ffffffffffffffff811161062757610623602091610147565b0190565b6105b7565b90825f939282370152565b9092919261064c61064782610609565b6105f4565b93818552602085019082840111610668576106669261062c565b565b6105b3565b9080601f8301121561068b5781602061068893359101610637565b90565b6101f9565b9190916040818403126106d0576106a9835f83016104b2565b92602082013567ffffffffffffffff81116106cb576106c8920161066d565b90565b6101cf565b61011c565b6106e96106e3366004610690565b90611a1d565b6106f1610112565b806106fb81610448565b0390f35b61070890610378565b9052565b919061071f905f602085019401906106ff565b565b3461075157610731366004610120565b61074d61073c611a98565b610744610112565b9182918261070c565b0390f35b610118565b3461078457610766366004610120565b61076e611ad0565b610776610112565b8061078081610448565b0390f35b610118565b906020828203126107a25761079f915f016101ea565b90565b61011c565b346107d7576107d36107c26107bd366004610789565b611ada565b6107ca610112565b91829182610566565b0390f35b610118565b6107e590610492565b9052565b91906107fc905f602085019401906107dc565b565b3461082e5761080e366004610120565b61082a610819611b06565b610821610112565b918291826107e9565b0390f35b610118565b9190916080818403126108915761084c835f83016104b2565b9261085a81602084016101ea565b92604083013567ffffffffffffffff811161088c5761087e83610889928601610244565b93909460600161038f565b90565b6101cf565b61011c565b346108c8576108b26108a9366004610833565b9392909261209e565b6108ba610112565b806108c481610448565b0390f35b610118565b67ffffffffffffffff81116108eb576108e7602091610147565b0190565b6105b7565b906109026108fd836108cd565b6105f4565b918252565b5f7f352e302e30000000000000000000000000000000000000000000000000000000910152565b61093860056108f0565b9061094560208301610907565b565b61094f61092e565b90565b61095a610947565b90565b610965610952565b90565b3461099857610978366004610120565b61099461098361095d565b61098b610112565b91829182610182565b0390f35b610118565b346109cd576109ad366004610120565b6109c96109b8612428565b6109c0610112565b918291826107e9565b0390f35b610118565b34610a00576109ea6109e53660046104c1565b6126f5565b6109f2610112565b806109fc81610448565b0390f35b610118565b34610a3357610a1d610a183660046104c1565b612765565b610a25610112565b80610a2f81610448565b0390f35b610118565b90602082820312610a5157610a4e915f0161038f565b90565b61011c565b610a5f906101d3565b9052565b96959394610aaa610abf96610aa060a096610a96610ab79760208e610a8f60c082019a5f8301906107dc565b0190610a56565b60408c019061030e565b60608a01906106ff565b8782036080890152610151565b940190610a56565b565b34610af857610af4610adc610ad7366004610a38565b61290b565b92610aeb969496929192610112565b96879687610a63565b0390f35b610118565b5f80fd5b606090565b5f7f322e302e30000000000000000000000000000000000000000000000000000000910152565b610b3760056108f0565b90610b4460208301610b06565b565b610b4e610b2d565b90565b610b59610b01565b50610b62610b46565b90565b5f90565b5f90565b5f90565b90565b610b88610b83610b8d926101d3565b610b71565b6101d3565b90565b90610b9a90610b74565b5f5260205260405f2090565b90565b6001610bb591016101d3565b90565b5490565b634e487b7160e01b5f52603260045260245ffd5b5f5260205f2090565b5f5260205f2090565b610beb81610bb8565b821015610c0557610bfd600191610bd0565b910201905f90565b610bbc565b1c90565b90565b610c21906008610c269302610c0a565b610c0e565b90565b90610c349154610c11565b90565b610c4090610378565b90565b90610c4d90610c37565b5f5260205260405f2090565b90565b5090565b90565b610c77610c72610c7c92610c60565b610b71565b6101d3565b90565b151590565b5f1c90565b60018060a01b031690565b610ca0610ca591610c84565b610c89565b90565b610cb29054610c94565b90565b9190811015610cc5576020020190565b610bbc565b35610cd48161049e565b90565b91565b5090565b90565b634e487b7160e01b5f52602260045260245ffd5b9060016002830492168015610d15575b6020831014610d1057565b610ce1565b91607f1691610d05565b60209181520190565b905f9291805490610d42610d3b83610cf5565b8094610d1f565b916001811690815f14610d995750600114610d5d575b505050565b610d6a9192939450610bd9565b915f925b818410610d8157505001905f8080610d58565b60018160209295939554848601520191019290610d6e565b92949550505060ff19168252151560200201905f8080610d58565b90610dbe91610d28565b90565b90610de1610dda92610dd1610112565b93848092610db4565b03836105cb565b565b610dec90610dc1565b90565b60200190565b5190565b610e04913691610637565b90565b60ff1690565b610e19610e1e91610c84565b610e07565b90565b610e2b9054610e0d565b90565b60ff1690565b610e40610e4591610c84565b610e2e565b90565b610e529054610e34565b90565b610e69610e64610e6e92610308565b610b71565b6101d3565b90565b634e487b7160e01b5f52601160045260245ffd5b610e94610e9a919392936101d3565b926101d3565b8201809211610ea557565b610e71565b610eb3906102ee565b67ffffffffffffffff8114610ec85760010190565b610e71565b610ee1610edc610ee692610c60565b610b71565b6102ee565b90565b610efd610ef8610f0292610c60565b610b71565b610308565b90565b610f19610f14610f1e926102ee565b610b71565b6101d3565b90565b634e487b7160e01b5f52601260045260245ffd5b610f41610f47916101d3565b916101d3565b908115610f52570490565b610f21565b610f6b610f66610f70926101d3565b610b71565b610308565b90565b92949391610f7f610b65565b92610f88610b69565b50610f916129d9565b610fae610fa9610f9f610b6d565b9760018401610b90565b610ba6565b90610fb7610b6d565b5b80610fd3610fcd610fc886610bb8565b6101d3565b916101d3565b10156111c857611001610ffc5f8401610ff6610ff0878690610be2565b90610c29565b90610c43565b610c59565b61100c878790610c5c565b61101e6110185f610c63565b916101d3565b146110298115610c7f565b611131575b61104261103c8d8890610cd7565b90610cda565b61105461104e5f610c63565b916101d3565b1480156110ca575b816110c2575b50806110b0575b61107d575b5061107890610ba9565b610fb8565b6110a361107892989961109d61109860026110a99501610e48565b610e55565b90610e85565b98610eaa565b969061106e565b506110bd60068201610e21565b611069565b90505f611062565b508b61112b61112561110d6111076110ec6110e760048901610cde565b610de3565b6110fe6110f882610df5565b91610def565b20948b90610cd7565b90610df9565b61111f61111982610df5565b91610def565b20610378565b91610378565b1461105c565b9a95929199909693611141610b6d565b5b8061115f611159611154898990610c5c565b6101d3565b916101d3565b10156111ba576111705f8a01610ca8565b61119561118f61118a6111858a8a8791610cb5565b610cca565b610492565b91610492565b146111a8576111a390610ba9565b611142565b50939690999192959a5060015b61102e565b50939690999192959a6111b5565b5050505050509250826111e36111dd5f610ecd565b916102ee565b115f1461120957611200611205916111fa85610f05565b90610f35565b610f57565b5b90565b506112135f610ee9565b611206565b61122c61122761123192610c60565b610b71565b610487565b90565b61123d90611218565b90565b5f7f756e6b6e6f776e00000000000000000000000000000000000000000000000000910152565b6112746007602092610133565b61127d81611240565b0190565b6112969060208101905f818303910152611267565b90565b156112a057565b6112a8610112565b62461bcd60e51b8152806112be60048201611281565b0390fd5b5f7f6e6f742076616c696461746f7200000000000000000000000000000000000000910152565b6112f6600d602092610133565b6112ff816112c2565b0190565b6113189060208101905f8183039101526112e9565b90565b1561132257565b61132a610112565b62461bcd60e51b81528061134060048201611303565b0390fd5b90565b61135b61135661136092611344565b610b71565b610308565b90565b5f7f726573703e313030000000000000000000000000000000000000000000000000910152565b6113976008602092610133565b6113a081611363565b0190565b6113b99060208101905f81830391015261138a565b90565b156113c357565b6113cb610112565b62461bcd60e51b8152806113e1600482016113a4565b0390fd5b5f1b90565b906113f660ff916113e5565b9181191691161790565b61141461140f61141992610308565b610b71565b610308565b90565b90565b9061143461142f61143b92611400565b61141c565b82546113ea565b9055565b9061144b5f19916113e5565b9181191691161790565b61145e90610c84565b90565b9061147661147161147d92610c37565b611455565b825461143f565b9055565b5090565b5f5260205f2090565b601f602091010490565b1b90565b919060086114b79102916114b15f1984611498565b92611498565b9181191691161790565b90565b91906114da6114d56114e293610b74565b6114c1565b90835461149c565b9055565b6114f8916114f2610b6d565b916114c4565b565b5f5b82811061150857505050565b806115175f60019385016114e6565b016114fc565b9190601f811161152d575b505050565b81811161153a575b611528565b61154f61154961156d94611485565b9161148e565b91602061155b8261148e565b9110611575575b8091019103906114fa565b5f8080611535565b505f611562565b9061158c905f1990600802610c0a565b191690565b8161159b9161157c565b906002021790565b916115ae9082611481565b9067ffffffffffffffff821161166d576115d2826115cc8554610cf5565b8561151d565b5f90601f8311600114611605579180916115f4935f926115f9575b5050611591565b90555b565b90915001355f806115ed565b601f1983169161161485611485565b925f5b8181106116555750916002939185600196941061163b575b505050020190556115f7565b61164b910135601f84169061157c565b90555f808061162f565b91936020600181928787013581550195019201611617565b6105b7565b9061167d92916115a3565b565b9061169461168f61169b92610b74565b6114c1565b825461143f565b9055565b6116a890610c7f565b90565b90565b906116c36116be6116ca9261169f565b6116ab565b82546113ea565b9055565b90565b6116dd6116e291610c84565b6116ce565b90565b6116ef90546116d1565b90565b61170661170161170b92610487565b610b71565b610487565b90565b611717906116f2565b90565b6117239061170e565b90565b9190611740816117398161174595610133565b809561062c565b610147565b0190565b916117829161178f979596946117779261176a60808701935f88019061030e565b8583036020870152611726565b9460408301906106ff565b6060818503910152611726565b90565b9395929190946118dd906117b86117b35f6117ab6129d9565b018890610c43565b610c59565b946117e86117c75f8801610ca8565b6117e16117db6117d65f611234565b610492565b91610492565b1415611299565b61180e336118086118026117fd5f8b01610ca8565b610492565b91610492565b1461131b565b61182c8861182561181f6064611347565b91610308565b11156113bc565b611839886002880161141f565b6118468960038801611461565b61185582829060048901611672565b611862426005880161167f565b6118706001600688016116ae565b61188760016118805f8901610ca8565b97016116e5565b96979394989190916118cb6118c56118bf7fafddf629e874ccc3963b6a888c477bd464a6c8525024fc88759ea3b2326349ae9961171a565b99610b74565b99610c37565b996118d4610112565b96879687611749565b0390a4565b606090565b906118f19061171a565b5f5260205260405f2090565b5490565b60209181520190565b5f5260205f2090565b61191f61192491610c84565b610c0e565b90565b6119319054611913565b90565b60010190565b9061195761195161194a846118fd565b8093611901565b9261190a565b905f5b8181106119675750505090565b90919261198761198160019261197c87611927565b6104ff565b94611934565b910191909161195a565b9061199b9161193a565b90565b906119be6119b7926119ae610112565b93848092611991565b03836105cb565b565b6119c99061199e565b90565b6119ec6119f1916119db6118e2565b5060026119e66129d9565b016118e7565b6119c0565b90565b90611a0691611a01612a09565b611a08565b565b90611a1b91611a1681612abb565b612b17565b565b90611a27916119f4565b565b5f90565b611a3e90611a39612c15565b611a8c565b90565b90565b611a58611a53611a5d92611a41565b6113e5565b610378565b90565b611a897f360894a13ba1a3210667c828492db98dca3e2076cc3735a920a3ca505d382bbc611a44565b90565b50611a95611a60565b90565b611aa8611aa3611a29565b611a2d565b90565b611ab3612c73565b611abb611abd565b565b611ace611ac95f611234565b612cc1565b565b611ad8611aab565b565b611afa611aff91611ae96118e2565b506001611af46129d9565b01610b90565b6119c0565b90565b5f90565b611b0e611b02565b50611b215f611b1b612d2d565b01610ca8565b90565b5f7f6261642076616c696461746f7200000000000000000000000000000000000000910152565b611b58600d602092610133565b611b6181611b24565b0190565b611b7a9060208101905f818303910152611b4b565b90565b15611b8457565b611b8c610112565b62461bcd60e51b815280611ba260048201611b65565b0390fd5b5f7f6578697374730000000000000000000000000000000000000000000000000000910152565b611bda6006602092610133565b611be381611ba6565b0190565b611bfc9060208101905f818303910152611bcd565b90565b15611c0657565b611c0e610112565b62461bcd60e51b815280611c2460048201611be7565b0390fd5b611c31906116f2565b90565b611c3d90611c28565b90565b611c499061170e565b90565b60e01b90565b90505190611c5f8261049e565b565b90602082820312611c7a57611c77915f01611c52565b90565b61011c565b9190611c92905f60208501940190610a56565b565b611c9c610112565b3d5f823e3d90fd5b611cad81610c7f565b03611cb457565b5f80fd5b90505190611cc582611ca4565b565b90602082820312611ce057611cdd915f01611cb8565b90565b61011c565b916020611d06929493611cff60408201965f8301906107dc565b01906107dc565b565b5f7f4e6f7420617574686f72697a6564000000000000000000000000000000000000910152565b611d3c600e602092610133565b611d4581611d08565b0190565b611d5e9060208101905f818303910152611d2f565b90565b15611d6857565b611d70610112565b62461bcd60e51b815280611d8660048201611d49565b0390fd5b611d9e611d99611da392610c60565b6113e5565b610378565b90565b611db060e06105f4565b90565b90611dbd90610492565b9052565b90611dcb906101d3565b9052565b90611dd990610308565b9052565b90611de790610378565b9052565b611df45f6108f0565b90565b611dff611deb565b90565b52565b90611e0f90610c7f565b9052565b611e1d9051610492565b90565b90611e3160018060a01b03916113e5565b9181191691161790565b90565b90611e53611e4e611e5a9261171a565b611e3b565b8254611e20565b9055565b611e6890516101d3565b90565b611e759051610308565b90565b611e829051610378565b90565b5190565b90611e938161012f565b9067ffffffffffffffff8211611f5357611eb782611eb18554610cf5565b8561151d565b602090601f8311600114611eeb57918091611eda935f92611edf575b5050611591565b90555b565b90915001515f80611ed3565b601f19831691611efa85611485565b925f5b818110611f3b57509160029391856001969410611f21575b50505002019055611edd565b611f31910151601f84169061157c565b90555f8080611f15565b91936020600181928787015181550195019201611efd565b6105b7565b90611f6291611e89565b565b611f6e9051610c7f565b90565b9061201960c0600661201f94611f945f8201611f8e5f8801611e13565b90611e3e565b611fad60018201611fa760208801611e5e565b9061167f565b611fc660028201611fc060408801611e6b565b9061141f565b611fdf60038201611fd960608801611e78565b90611461565b611ff860048201611ff260808801611e85565b90611f58565b6120116005820161200b60a08801611e5e565b9061167f565b019201611f64565b906116ae565b565b9061202b91611f71565b565b919061204361203e61204b93610c37565b611455565b90835461149c565b9055565b908154916801000000000000000083101561207f578261207791600161207d95018155610be2565b9061202d565b565b6105b7565b909161209b9260208301925f818503910152611726565b90565b9392936120a96129d9565b6120ce826120c76120c16120bc5f611234565b610492565b91610492565b1415611b7d565b6121086120e85f6120e28185018990610c43565b01610ca8565b6121026120fc6120f75f611234565b610492565b91610492565b14611bff565b6121196121145f610ca8565b611c34565b90612152602061212884611c40565b636352211e90612147889261213b610112565b95869485938493611c4c565b835260048301611c7f565b03915afa908115612423575f916123f5575b503361217861217283610492565b91610492565b1490811561236e575b509182156122bf575b5061225a600261225f926121a061226695611d61565b6122325f612220886122178b6121fa856121f16121e86121bf89611d8a565b926121e342966121da8c9a6121d2611da6565b9d8e01611db3565b60208c01611dc1565b610ee9565b60408901611dcf565b60608701611ddd565b61220e612205611df7565b60808701611e02565b60a08501611dc1565b60c08301611e05565b61222d5f84018c90610c43565b612021565b61225261224b612246600184018a90610b90565b610ba6565b8a9061204f565b0184906118e7565b610ba6565b859061204f565b9091936122a561229f6122997f530436c3634a98e1e626b0898be2f1e9980cc1bd2a78c07a0aba52d0a48a50599461171a565b94610b74565b94610c37565b946122ba6122b1610112565b92839283612084565b0390a4565b6122f992506122cf602091611c40565b63081812fc906122ee87926122e2610112565b96879485938493611c4c565b835260048301611c7f565b03915afa91821561236957600261225f926121a06122669561225a945f9161233b575b5061232f61232933610492565b91610492565b1495505092505061218a565b61235c915060203d8111612362575b61235481836105cb565b810190611c61565b5f61231c565b503d61234a565b611c94565b9050602061237b84611c40565b63e985e9c5929061239e33946123a9612392610112565b96879586948594611c4c565b845260048401611ce5565b03915afa9081156123f0575f916123c2575b505f612181565b6123e3915060203d81116123e9575b6123db81836105cb565b810190611cc7565b5f6123bb565b503d6123d1565b611c94565b612416915060203d811161241c575b61240e81836105cb565b810190611c61565b5f612164565b503d612404565b611c94565b612430611b02565b5061243a5f610ca8565b90565b90565b61245461244f6124599261243d565b610b71565b6102ee565b90565b60401c90565b61246e6124739161245c565b610e07565b90565b6124809054612462565b90565b67ffffffffffffffff1690565b61249c6124a191610c84565b612483565b90565b6124ae9054612490565b90565b906124c467ffffffffffffffff916113e5565b9181191691161790565b6124e26124dd6124e7926102ee565b610b71565b6102ee565b90565b90565b906125026124fd612509926124ce565b6124ea565b82546124b1565b9055565b60401b90565b9061252768ff00000000000000009161250d565b9181191691161790565b9061254661254161254d9261169f565b6116ab565b8254612513565b9055565b9190612564905f602085019401906102fb565b565b6125706001612440565b90612579612d51565b6125845f8201612476565b8015612614575b6125f8576125b46125bd926125a2855f85016124ed565b6125af60015f8501612531565b6126bb565b5f809101612531565b6125f37fc7f505b2f371ae2175ee4913f4499e1f2633a7b5936321eed1cdaeb6115181d2916125ea610112565b91829182612551565b0390a1565b5f63f92ee8a960e01b81528061261060048201610448565b0390fd5b506126205f82016124a4565b61263261262c856102ee565b916102ee565b101561258b565b5f7f626164206964656e746974790000000000000000000000000000000000000000910152565b61266d600c602092610133565b61267681612639565b0190565b61268f9060208101905f818303910152612660565b90565b1561269957565b6126a1610112565b62461bcd60e51b8152806126b76004820161267a565b0390fd5b6126f3906126c833612d7a565b6126ed816126e66126e06126db5f611234565b610492565b91610492565b1415612692565b5f611e3e565b565b6126fe90612566565b565b6127119061270c612c73565b612713565b565b8061272e6127286127235f611234565b610492565b91610492565b1461273e5761273c90612cc1565b565b61276161274a5f611234565b5f918291631e4fbdf760e01b8352600483016107e9565b0390fd5b61276e90612700565b565b61277a9054611913565b90565b60209181520190565b905f92918054906127a061279983610cf5565b809461277d565b916001811690815f146127f757506001146127bb575b505050565b6127c89192939450611485565b915f925b8184106127df57505001905f80806127b6565b600181602092959395548486015201910192906127cc565b92949550505060ff19168252151560200201905f80806127b6565b9061281c91612786565b90565b9061283f6128389261282f610112565b93848092612812565b03836105cb565b565b61284b60e06105f4565b90565b906128fd6128f4600661285f612841565b9461287661286e5f8301610ca8565b5f8801611db3565b61288e612885600183016116e5565b60208801611dc1565b6128a661289d60028301610e48565b60408801611dcf565b6128be6128b560038301612770565b60608801611ddd565b6128d66128cd6004830161281f565b60808801611e02565b6128ee6128e5600583016116e5565b60a08801611dc1565b01610e21565b60c08401611e05565b565b6129089061284e565b90565b61295761295c9161291a611b02565b50612923610b6d565b5061292c610b69565b50612935611a29565b5061293e610b01565b50612947610b6d565b505f6129516129d9565b01610c43565b6128ff565b9061298c61296b5f8401611e13565b61298561297f61297a5f611234565b610492565b91610492565b1415611299565b6129975f8301611e13565b906129a460208401611e5e565b926129b160408201611e6b565b926129be60608301611e78565b926129d060a060808501519401611e5e565b91959493929190565b7f21543a2dd0df813994fbf82c69c61d1aafcdce183d68d2ef40068bdce148110090565b612a069061170e565b90565b612a12306129fd565b612a44612a3e7f0000000000000000000000000000000000000000000000000000000000000000610492565b91610492565b148015612a6e575b612a5257565b5f63703e46dd60e11b815280612a6a60048201610448565b0390fd5b50612a77612d85565b612aa9612aa37f0000000000000000000000000000000000000000000000000000000000000000610492565b91610492565b1415612a4c565b50612ab9612c73565b565b612ac490612ab0565b565b612acf906116f2565b90565b612adb90612ac6565b90565b612ae79061170e565b90565b90505190612af78261037b565b565b90602082820312612b1257612b0f915f01612aea565b90565b61011c565b9190612b456020612b2f612b2a86612ad2565b612ade565b6352d1902d90612b3d610112565b938492611c4c565b82528180612b5560048201610448565b03915afa80915f92612be5575b50155f14612b96575050906001612b7757505b565b612b92905f918291634c9c8ce360e01b8352600483016107e9565b0390fd5b9283612bb1612bab612ba6611a60565b610378565b91610378565b03612bc657612bc1929350612dab565b612b75565b612be1845f918291632a87526960e21b83526004830161070c565b0390fd5b612c0791925060203d8111612c0e575b612bff81836105cb565b810190612af9565b905f612b62565b503d612bf5565b612c1e306129fd565b612c50612c4a7f0000000000000000000000000000000000000000000000000000000000000000610492565b91610492565b03612c5757565b5f63703e46dd60e11b815280612c6f60048201610448565b0390fd5b612c7b611b06565b612c94612c8e612c89612e34565b610492565b91610492565b03612c9b57565b612cbd612ca6612e34565b5f91829163118cdaa760e01b8352600483016107e9565b0390fd5b612cc9612d2d565b612ce1612cd75f8301610ca8565b915f849101611e3e565b90612d15612d0f7f8be0079c531659141344cd1fd0a4f28419497f9722a3daafe3b4186f6b6457e09361171a565b9161171a565b91612d1e610112565b80612d2881610448565b0390a3565b7f9016d09d72d40fdae2fd8ceac6b6234c7706214fd39c1cd1e609a0528c19930090565b612d59612e8c565b90565b612d6d90612d68612ea0565b612d6f565b565b612d7890612f38565b565b612d8390612d5c565b565b612d8d611b02565b50612da85f612da2612d9d611a60565b612f43565b01610ca8565b90565b90612db582612f46565b81612de07fbc7cd75a20ee27fd9adebab32041f755214dbc6bffa90cc0225b39da2e5c2d3b9161171a565b90612de9610112565b80612df381610448565b0390a2612dff81610df5565b612e11612e0b5f610c63565b916101d3565b115f14612e2557612e2191612fd6565b505b565b5050612e2f612f9b565b612e23565b612e3c611b02565b503390565b90565b612e58612e53612e5d92612e41565b6113e5565b610378565b90565b612e897ff0c57e16840df040f15088dc2f81fe391c3923bec73e23a9662efc9c229c6a00612e44565b90565b612e94611a29565b50612e9d612e60565b90565b612eb1612eab6130ad565b15610c7f565b612eb757565b5f631afcd79f60e31b815280612ecf60048201610448565b0390fd5b612ee490612edf612ea0565b612ee6565b565b80612f01612efb612ef65f611234565b610492565b91610492565b14612f1157612f0f90612cc1565b565b612f34612f1d5f611234565b5f918291631e4fbdf760e01b8352600483016107e9565b0390fd5b612f4190612ed3565b565b90565b803b612f5a612f545f610c63565b916101d3565b14612f7c57612f7a905f612f74612f6f611a60565b612f43565b01611e3e565b565b612f97905f918291634c9c8ce360e01b8352600483016107e9565b0390fd5b34612fae612fa85f610c63565b916101d3565b11612fb557565b5f63b398979f60e01b815280612fcd60048201610448565b0390fd5b606090565b90612fea90612fe3612fd1565b50826130cb565b8080613066575b5f146130045750506130016130fc565b90565b5f1461302957613025905f918291639996b31560e01b8352600483016107e9565b0390fd5b6130316130e4565b61304361303d5f610c63565b916101d3565b115f036130f1575f63d6bda27560e01b81528061306260048201610448565b0390fd5b5061306f6130e4565b61308161307b5f610c63565b916101d3565b11801561308e575b612ff1565b50813b6130a361309d5f610c63565b916101d3565b11613089565b5f90565b6130b56130a9565b506130c85f6130c2612d51565b01612476565b90565b5f9182916130d76130a9565b50602082519201905af490565b6130ec610b6d565b503d90565b6040513d5f823e3d90fd5b613104612fd1565b50604051903d82523d5f602084013e3d602001820160405256fea2646970667358221220c866165aab15e4753324e98052c1d13f0e84c8cb3f6370692f0f36f8c1bc0e7564736f6c63430008210033","linkReferences":{}},"methodIdentifiers":{"UPGRADE_INTERFACE_VERSION()":"ad3cb1cc","getAgentValidations(uint256)":"8d5d0c2d","getIdentityRegistry()":"bc4d861b","getSummary(uint256,address[],string)":"1b7cabd6","getValidationStatus(bytes32)":"ff2febfc","getValidatorRequests(address)":"4bf3158c","getVersion()":"0d8e6e2c","initialize(address)":"c4d66de8","owner()":"8da5cb5b","proxiableUUID()":"52d1902d","renounceOwnership()":"715018a6","transferOwnership(address)":"f2fde38b","upgradeToAndCall(address,bytes)":"4f1ef286","validationRequest(address,uint256,string,bytes32)":"aaf400c4","validationResponse(bytes32,uint8,string,bytes32,string)":"3d659a96"},"id":3}