{"abi":[{"type":"constructor","inputs":[],"stateMutability":"nonpayable"},{"type":"function","name":"UPGRADE_INTERFACE_VERSION","inputs":[],"outputs":[{"name":"","type":"string","internalType":"string"}],"stateMutability":"view"},{"type":"function","name":"approve","inputs":[{"name":"to","type":"address","internalType":"address"},{"name":"tokenId","type":"uint256","internalType":"uint256"}],"outputs":[],"stateMutability":"nonpayable"},{"type":"function","name":"balanceOf","inputs":[{"name":"owner","type":"address","internalType":"address"}],"outputs":[{"name":"","type":"uint256","internalType":"uint256"}],"stateMutability":"view"},{"type":"function","name":"eip712Domain","inputs":[],"outputs":[{"name":"fields","type":"bytes1","internalType":"bytes1"},{"name":"name","type":"string","internalType":"string"},{"name":"version","type":"string","internalType":"string"},{"name":"chainId","type":"uint256","internalType":"uint256"},{"name":"verifyingContract","type":"address","internalType":"address"},{"name":"salt","type":"bytes32","internalType":"bytes32"},{"name":"extensions","type":"uint256[]","internalType":"uint256[]"}],"stateMutability":"view"},{"type":"function","name":"getAgentWallet","inputs":[{"name":"agentId","type":"uint256","internalType":"uint256"}],"outputs":[{"name":"","type":"address","internalType":"address"}],"stateMutability":"view"},{"type":"function","name":"getApproved","inputs":[{"name":"tokenId","type":"uint256","internalType":"uint256"}],"outputs":[{"name":"","type":"address","internalType":"address"}],"stateMutability":"view"},{"type":"function","name":"getMetadata","inputs":[{"name":"agentId","type":"uint256","internalType":"uint256"},{"name":"metadataKey","type":"string","internalType":"string"}],"outputs":[{"name":"","type":"bytes","internalType":"bytes"}],"stateMutability":"view"},{"type":"function","name":"getVersion","inputs":[],"outputs":[{"name":"","type":"string","internalType":"string"}],"stateMutability":"pure"},{"type":"function","name":"initialize","inputs":[],"outputs":[],"stateMutability":"nonpayable"},{"type":"function","name":"isApprovedForAll","inputs":[{"name":"owner","type":"address","internalType":"address"},{"name":"operator","type":"address","internalType":"address"}],"outputs":[{"name":"","type":"bool","internalType":"bool"}],"stateMutability":"view"},{"type":"function","name":"isAuthorizedOrOwner","inputs":[{"name":"spender","type":"address","internalType":"address"},{"name":"agentId","type":"uint256","internalType":"uint256"}],"outputs":[{"name":"","type":"bool","internalType":"bool"}],"stateMutability":"view"},{"type":"function","name":"name","inputs":[],"outputs":[{"name":"","type":"string","internalType":"string"}],"stateMutability":"view"},{"type":"function","name":"owner","inputs":[],"outputs":[{"name":"","type":"address","internalType":"address"}],"stateMutability":"view"},{"type":"function","name":"ownerOf","inputs":[{"name":"tokenId","type":"uint256","internalType":"uint256"}],"outputs":[{"name":"","type":"address","internalType":"address"}],"stateMutability":"view"},{"type":"function","name":"proxiableUUID","inputs":[],"outputs":[{"name":"","type":"bytes32","internalType":"bytes32"}],"stateMutability":"view"},{"type":"function","name":"register","inputs":[],"outputs":[{"name":"agentId","type":"uint256","internalType":"uint256"}],"stateMutability":"nonpayable"},{"type":"function","name":"register","inputs":[{"name":"agentURI","type":"string","internalType":"string"},{"name":"metadata","type":"tuple[]","internalType":"struct IdentityRegistryUpgradeable.MetadataEntry[]","components":[{"name":"metadataKey","type":"string","internalType":"string"},{"name":"metadataValue","type":"bytes","internalType":"bytes"}]}],"outputs":[{"name":"agentId","type":"uint256","internalType":"uint256"}],"stateMutability":"nonpayable"},{"type":"function","name":"register","inputs":[{"name":"agentURI","type":"string","internalType":"string"}],"outputs":[{"name":"agentId","type":"uint256","internalType":"uint256"}],"stateMutability":"nonpayable"},{"type":"function","name":"renounceOwnership","inputs":[],"outputs":[],"stateMutability":"nonpayable"},{"type":"function","name":"safeTransferFrom","inputs":[{"name":"from","type":"address","internalType":"address"},{"name":"to","type":"address","internalType":"address"},{"name":"tokenId","type":"uint256","internalType":"uint256"}],"outputs":[],"stateMutability":"nonpayable"},{"type":"function","name":"safeTransferFrom","inputs":[{"name":"from","type":"address","internalType":"address"},{"name":"to","type":"address","internalType":"address"},{"name":"tokenId","type":"uint256","internalType":"uint256"},{"name":"data","type":"bytes","internalType":"bytes"}],"outputs":[],"stateMutability":"nonpayable"},{"type":"function","name":"setAgentURI","inputs":[{"name":"agentId","type":"uint256","internalType":"uint256"},{"name":"newURI","type":"string","internalType":"string"}],"outputs":[],"stateMutability":"nonpayable"},{"type":"function","name":"setAgentWallet","inputs":[{"name":"agentId","type":"uint256","internalType":"uint256"},{"name":"newWallet","type":"address","internalType":"address"},{"name":"deadline","type":"uint256","internalType":"uint256"},{"name":"signature","type":"bytes","internalType":"bytes"}],"outputs":[],"stateMutability":"nonpayable"},{"type":"function","name":"setApprovalForAll","inputs":[{"name":"operator","type":"address","internalType":"address"},{"name":"approved","type":"bool","internalType":"bool"}],"outputs":[],"stateMutability":"nonpayable"},{"type":"function","name":"setMetadata","inputs":[{"name":"agentId","type":"uint256","internalType":"uint256"},{"name":"metadataKey","type":"string","internalType":"string"},{"name":"metadataValue","type":"bytes","internalType":"bytes"}],"outputs":[],"stateMutability":"nonpayable"},{"type":"function","name":"supportsInterface","inputs":[{"name":"interfaceId","type":"bytes4","internalType":"bytes4"}],"outputs":[{"name":"","type":"bool","internalType":"bool"}],"stateMutability":"view"},{"type":"function","name":"symbol","inputs":[],"outputs":[{"name":"","type":"string","internalType":"string"}],"stateMutability":"view"},{"type":"function","name":"tokenURI","inputs":[{"name":"tokenId","type":"uint256","internalType":"uint256"}],"outputs":[{"name":"","type":"string","internalType":"string"}],"stateMutability":"view"},{"type":"function","name":"transferFrom","inputs":[{"name":"from","type":"address","internalType":"address"},{"name":"to","type":"address","internalType":"address"},{"name":"tokenId","type":"uint256","internalType":"uint256"}],"outputs":[],"stateMutability":"nonpayable"},{"type":"function","name":"transferOwnership","inputs":[{"name":"newOwner","type":"address","internalType":"address"}],"outputs":[],"stateMutability":"nonpayable"},{"type":"function","name":"unsetAgentWallet","inputs":[{"name":"agentId","type":"uint256","internalType":"uint256"}],"outputs":[],"stateMutability":"nonpayable"},{"type":"function","name":"upgradeToAndCall","inputs":[{"name":"newImplementation","type":"address","internalType":"address"},{"name":"data","type":"bytes","internalType":"bytes"}],"outputs":[],"stateMutability":"payable"},{"type":"event","name":"Approval","inputs":[{"name":"owner","type":"address","indexed":true,"internalType":"address"},{"name":"approved","type":"address","indexed":true,"internalType":"address"},{"name":"tokenId","type":"uint256","indexed":true,"internalType":"uint256"}],"anonymous":false},{"type":"event","name":"ApprovalForAll","inputs":[{"name":"owner","type":"address","indexed":true,"internalType":"address"},{"name":"operator","type":"address","indexed":true,"internalType":"address"},{"name":"approved","type":"bool","indexed":false,"internalType":"bool"}],"anonymous":false},{"type":"event","name":"BatchMetadataUpdate","inputs":[{"name":"_fromTokenId","type":"uint256","indexed":false,"internalType":"uint256"},{"name":"_toTokenId","type":"uint256","indexed":false,"internalType":"uint256"}],"anonymous":false},{"type":"event","name":"EIP712DomainChanged","inputs":[],"anonymous":false},{"type":"event","name":"Initialized","inputs":[{"name":"version","type":"uint64","indexed":false,"internalType":"uint64"}],"anonymous":false},{"type":"event","name":"MetadataSet","inputs":[{"name":"agentId","type":"uint256","indexed":true,"internalType":"uint256"},{"name":"indexedMetadataKey","type":"string","indexed":true,"internalType":"string"},{"name":"metadataKey","type":"string","indexed":false,"internalType":"string"},{"name":"metadataValue","type":"bytes","indexed":false,"internalType":"bytes"}],"anonymous":false},{"type":"event","name":"MetadataUpdate","inputs":[{"name":"_tokenId","type":"uint256","indexed":false,"internalType":"uint256"}],"anonymous":false},{"type":"event","name":"OwnershipTransferred","inputs":[{"name":"previousOwner","type":"address","indexed":true,"internalType":"address"},{"name":"newOwner","type":"address","indexed":true,"internalType":"address"}],"anonymous":false},{"type":"event","name":"Registered","inputs":[{"name":"agentId","type":"uint256","indexed":true,"internalType":"uint256"},{"name":"agentURI","type":"string","indexed":false,"internalType":"string"},{"name":"owner","type":"address","indexed":true,"internalType":"address"}],"anonymous":false},{"type":"event","name":"Transfer","inputs":[{"name":"from","type":"address","indexed":true,"internalType":"address"},{"name":"to","type":"address","indexed":true,"internalType":"address"},{"name":"tokenId","type":"uint256","indexed":true,"internalType":"uint256"}],"anonymous":false},{"type":"event","name":"URIUpdated","inputs":[{"name":"agentId","type":"uint256","indexed":true,"internalType":"uint256"},{"name":"newURI","type":"string","indexed":false,"internalType":"string"},{"name":"updatedBy","type":"address","indexed":true,"internalType":"address"}],"anonymous":false},{"type":"event","name":"Upgraded","inputs":[{"name":"implementation","type":"address","indexed":true,"internalType":"address"}],"anonymous":false},{"type":"error","name":"AddressEmptyCode","inputs":[{"name":"target","type":"address","internalType":"address"}]},{"type":"error","name":"ERC1967InvalidImplementation","inputs":[{"name":"implementation","type":"address","internalType":"address"}]},{"type":"error","name":"ERC1967NonPayable","inputs":[]},{"type":"error","name":"ERC721IncorrectOwner","inputs":[{"name":"sender","type":"address","internalType":"address"},{"name":"tokenId","type":"uint256","internalType":"uint256"},{"name":"owner","type":"address","internalType":"address"}]},{"type":"error","name":"ERC721InsufficientApproval","inputs":[{"name":"operator","type":"address","internalType":"address"},{"name":"tokenId","type":"uint256","internalType":"uint256"}]},{"type":"error","name":"ERC721InvalidApprover","inputs":[{"name":"approver","type":"address","internalType":"address"}]},{"type":"error","name":"ERC721InvalidOperator","inputs":[{"name":"operator","type":"address","internalType":"address"}]},{"type":"error","name":"ERC721InvalidOwner","inputs":[{"name":"owner","type":"address","internalType":"address"}]},{"type":"error","name":"ERC721InvalidReceiver","inputs":[{"name":"receiver","type":"address","internalType":"address"}]},{"type":"error","name":"ERC721InvalidSender","inputs":[{"name":"sender","type":"address","internalType":"address"}]},{"type":"error","name":"ERC721NonexistentToken","inputs":[{"name":"tokenId","type":"uint256","internalType":"uint256"}]},{"type":"error","name":"FailedCall","inputs":[]},{"type":"error","name":"InvalidInitialization","inputs":[]},{"type":"error","name":"NotInitializing","inputs":[]},{"type":"error","name":"OwnableInvalidOwner","inputs":[{"name":"owner","type":"address","internalType":"address"}]},{"type":"error","name":"OwnableUnauthorizedAccount","inputs":[{"name":"account","type":"address","internalType":"address"}]},{"type":"error","name":"UUPSUnauthorizedCallContext","inputs":[]},{"type":"error","name":"UUPSUnsupportedProxiableUUID","inputs":[{"name":"slot","type":"bytes32","internalType":"bytes32"}]}],"bytecode":{"object":"0x60a06040523461003e5761001161004d565b610019610043565b6159986100bc8239608051818181613ea101528181613f0601526140d1015261599890f35b610049565b60405190565b5f80fd5b610055610057565b565b61005f610061565b565b6100696100ad565b565b60018060a01b031690565b90565b61008d6100886100929261006b565b610076565b61006b565b90565b61009e90610079565b90565b6100aa90610095565b90565b6100b6306100a1565b60805256fe60806040526004361015610013575b611319565b61001d5f3561021b565b80623395091461021657806301ffc9a71461021157806306fdde031461020c578063081812fc14610207578063095ea7b3146102025780630af28bd3146101fd5780630d8e6e2c146101f85780631aa3a008146101f357806323b872dd146101ee5780632d1ef5ae146101e95780633fddcf19146101e457806342842e0e146101df578063466648da146101da5780634f1ef286146101d557806352d1902d146101d05780636352211e146101cb57806370a08231146101c6578063715018a6146101c15780638129fc1c146101bc57806384b0196e146101b75780638da5cb5b146101b25780638ea42286146101ad57806395d89b41146101a8578063a22cb465146101a3578063ad3cb1cc1461019e578063b88d4fde14610199578063c87b56dd14610194578063cb4799f21461018f578063d95e72be1461018a578063e985e9c514610185578063f2c298be146101805763f2fde38b0361000e576112e6565b6112b1565b611246565b6111e3565b6111ad565b6110dd565b6110a6565b611012565b610f66565b610ee1565b610eab565b610cf2565b610cb6565b610b71565b610b3e565b610b09565b610ab6565b610a81565b610a32565b6109b9565b6107c3565b610790565b610759565b610686565b610617565b6105c0565b61058c565b6104c7565b61043d565b610408565b610359565b6102b0565b60e01c90565b60405190565b5f80fd5b5f80fd5b5f80fd5b90565b61023f81610233565b0361024657565b5f80fd5b9050359061025782610236565b565b906020828203126102725761026f915f0161024a565b90565b61022b565b60018060a01b031690565b61028b90610277565b90565b61029790610282565b9052565b91906102ae905f6020850194019061028e565b565b346102e0576102dc6102cb6102c6366004610259565b6115c3565b6102d3610221565b9182918261029b565b0390f35b610227565b63ffffffff60e01b1690565b6102fa816102e5565b0361030157565b5f80fd5b90503590610312826102f1565b565b9060208282031261032d5761032a915f01610305565b90565b61022b565b151590565b61034090610332565b9052565b9190610357905f60208501940190610337565b565b346103895761038561037461036f366004610314565b61163c565b61037c610221565b91829182610344565b0390f35b610227565b5f91031261039857565b61022b565b5190565b60209181520190565b90825f9392825e0152565b601f801991011690565b6103de6103e76020936103ec936103d58161039d565b938480936103a1565b958691016103aa565b6103b5565b0190565b6104059160208201915f8184039101526103bf565b90565b346104385761041836600461038e565b61043461042361175a565b61042b610221565b918291826103f0565b0390f35b610227565b3461046d57610469610458610453366004610259565b611778565b610460610221565b9182918261029b565b0390f35b610227565b61047b81610282565b0361048257565b5f80fd5b9050359061049382610472565b565b91906040838203126104bd57806104b16104ba925f8601610486565b9360200161024a565b90565b61022b565b5f0190565b346104f6576104e06104da366004610495565b90611797565b6104e8610221565b806104f2816104c2565b0390f35b610227565b5f80fd5b5f80fd5b5f80fd5b909182601f830112156105415781359167ffffffffffffffff831161053c57602001926001830284011161053757565b610503565b6104ff565b6104fb565b9190916040818403126105875761055f835f830161024a565b92602082013567ffffffffffffffff81116105825761057e9201610507565b9091565b61022f565b61022b565b346105bb576105a561059f366004610546565b91611892565b6105ad610221565b806105b7816104c2565b0390f35b610227565b346105f0576105d036600461038e565b6105ec6105db6119b3565b6105e3610221565b918291826103f0565b0390f35b610227565b6105fe90610233565b9052565b9190610615905f602085019401906105f5565b565b346106475761062736600461038e565b610643610632611d1f565b61063a610221565b91829182610602565b0390f35b610227565b90916060828403126106815761067e610667845f8501610486565b936106758160208601610486565b9360400161024a565b90565b61022b565b346106b55761069f61069936600461064c565b91611ec3565b6106a7610221565b806106b1816104c2565b0390f35b610227565b909182601f830112156106f45781359167ffffffffffffffff83116106ef5760200192600183028401116106ea57565b610503565b6104ff565b6104fb565b9060808282031261075457610710815f840161024a565b9261071e8260208501610486565b9261072c836040830161024a565b92606082013567ffffffffffffffff811161074f5761074b92016106ba565b9091565b61022f565b61022b565b3461078b5761077561076c3660046106f9565b93929092612371565b61077d610221565b80610787816104c2565b0390f35b610227565b346107be576107a86107a3366004610259565b612755565b6107b0610221565b806107ba816104c2565b0390f35b610227565b346107f2576107dc6107d636600461064c565b9161284a565b6107e4610221565b806107ee816104c2565b0390f35b610227565b5f80fd5b634e487b7160e01b5f52604160045260245ffd5b90610819906103b5565b810190811067ffffffffffffffff82111761083357604052565b6107fb565b9061084b610844610221565b928361080f565b565b67ffffffffffffffff811161086b576108676020916103b5565b0190565b6107fb565b90825f939282370152565b9092919261089061088b8261084d565b610838565b938185526020850190828401116108ac576108aa92610870565b565b6107f7565b9080601f830112156108cf578160206108cc9335910161087b565b90565b6104fb565b67ffffffffffffffff81116108f2576108ee6020916103b5565b0190565b6107fb565b9092919261090c610907826108d4565b610838565b938185526020850190828401116109285761092692610870565b565b6107f7565b9080601f8301121561094b57816020610948933591016108f7565b90565b6104fb565b916060838303126109b457610967825f850161024a565b92602081013567ffffffffffffffff81116109af57836109889183016108b1565b92604082013567ffffffffffffffff81116109aa576109a7920161092d565b90565b61022f565b61022f565b61022b565b346109e8576109d26109cc366004610950565b916129c5565b6109da610221565b806109e4816104c2565b0390f35b610227565b919091604081840312610a2d57610a06835f8301610486565b92602082013567ffffffffffffffff8111610a2857610a25920161092d565b90565b61022f565b61022b565b610a46610a403660046109ed565b90612b14565b610a4e610221565b80610a58816104c2565b0390f35b90565b610a6890610a5c565b9052565b9190610a7f905f60208501940190610a5f565b565b34610ab157610a9136600461038e565b610aad610a9c612b8f565b610aa4610221565b91829182610a6c565b0390f35b610227565b34610ae657610ae2610ad1610acc366004610259565b612ba2565b610ad9610221565b9182918261029b565b0390f35b610227565b90602082820312610b0457610b01915f01610486565b90565b61022b565b34610b3957610b35610b24610b1f366004610aeb565b612bcd565b610b2c610221565b91829182610602565b0390f35b610227565b34610b6c57610b4e36600461038e565b610b56612c62565b610b5e610221565b80610b68816104c2565b0390f35b610227565b34610b9f57610b8136600461038e565b610b89613007565b610b91610221565b80610b9b816104c2565b0390f35b610227565b60ff60f81b1690565b610bb690610ba4565b9052565b5190565b60209181520190565b60200190565b610bd690610233565b9052565b90610be781602093610bcd565b0190565b60200190565b90610c0e610c08610c0184610bba565b8093610bbe565b92610bc7565b905f5b818110610c1e5750505090565b909192610c37610c316001928651610bda565b94610beb565b9101919091610c11565b93959194610c92610c87610ca695610c79610c9c95610cb39c9a610c6c60e08c01925f8d0190610bad565b8a820360208c01526103bf565b9088820360408a01526103bf565b9760608701906105f5565b608085019061028e565b60a0830190610a5f565b60c0818403910152610bf1565b90565b34610ced57610cc636600461038e565b610ce9610cd161316c565b93610ce0979597939193610221565b97889788610c41565b0390f35b610227565b34610d2257610d0236600461038e565b610d1e610d0d61327e565b610d15610221565b9182918261029b565b0390f35b610227565b67ffffffffffffffff8111610d3f5760208091020190565b6107fb565b5f80fd5b5f80fd5b919091604081840312610db657610d636040610838565b925f82013567ffffffffffffffff8111610db15781610d839184016108b1565b5f850152602082013567ffffffffffffffff8111610dac57610da5920161092d565b6020830152565b610d48565b610d48565b610d44565b929190610dcf610dca82610d27565b610838565b9381855260208086019202810191838311610e265781905b838210610df5575050505050565b813567ffffffffffffffff8111610e2157602091610e168784938701610d4c565b815201910190610de7565b6104fb565b610503565b9080601f83011215610e4957816020610e4693359101610dbb565b90565b6104fb565b919091604081840312610ea6575f81013567ffffffffffffffff8111610ea15783610e7a9183016108b1565b92602082013567ffffffffffffffff8111610e9c57610e999201610e2b565b90565b61022f565b61022f565b61022b565b34610edc57610ed8610ec7610ec1366004610e4e565b906132e3565b610ecf610221565b91829182610602565b0390f35b610227565b34610f1157610ef136600461038e565b610f0d610efc61357b565b610f04610221565b918291826103f0565b0390f35b610227565b610f1f81610332565b03610f2657565b5f80fd5b90503590610f3782610f16565b565b9190604083820312610f615780610f55610f5e925f8601610486565b93602001610f2a565b90565b61022b565b34610f9557610f7f610f79366004610f39565b9061359a565b610f87610221565b80610f91816104c2565b0390f35b610227565b90610fac610fa78361084d565b610838565b918252565b5f7f352e302e30000000000000000000000000000000000000000000000000000000910152565b610fe26005610f9a565b90610fef60208301610fb1565b565b610ff9610fd8565b90565b611004610ff1565b90565b61100f610ffc565b90565b346110425761102236600461038e565b61103e61102d611007565b611035610221565b918291826103f0565b0390f35b610227565b906080828203126110a15761105e815f8401610486565b9261106c8260208501610486565b9261107a836040830161024a565b92606082013567ffffffffffffffff811161109c57611099920161092d565b90565b61022f565b61022b565b346110d8576110c26110b9366004611047565b929190916135b0565b6110ca610221565b806110d4816104c2565b0390f35b610227565b3461110d576111096110f86110f3366004610259565b613630565b611100610221565b918291826103f0565b0390f35b610227565b9190916040818403126111525761112b835f830161024a565b92602082013567ffffffffffffffff811161114d5761114a92016108b1565b90565b61022f565b61022b565b5190565b60209181520190565b61118361118c6020936111919361117a81611157565b9384809361115b565b958691016103aa565b6103b5565b0190565b6111aa9160208201915f818403910152611164565b90565b346111de576111da6111c96111c3366004611112565b906136d8565b6111d1610221565b91829182611195565b0390f35b610227565b34611214576112106111ff6111f9366004610495565b90613709565b611207610221565b91829182610344565b0390f35b610227565b9190604083820312611241578061123561123e925f8601610486565b93602001610486565b90565b61022b565b346112775761127361126261125c366004611219565b90613777565b61126a610221565b91829182610344565b0390f35b610227565b906020828203126112ac575f82013567ffffffffffffffff81116112a7576112a492016108b1565b90565b61022f565b61022b565b346112e1576112dd6112cc6112c736600461127c565b6137a8565b6112d4610221565b91829182610602565b0390f35b610227565b34611314576112fe6112f9366004610aeb565b613963565b611306610221565b80611310816104c2565b0390f35b610227565b5f80fd5b5f90565b90565b61133861133361133d92610233565b611321565b610233565b90565b9061134a90611324565b5f5260205260405f2090565b905090565b5f7f6167656e7457616c6c6574000000000000000000000000000000000000000000910152565b61138e600b8092611356565b6113978161135b565b0190565b90565b6113aa6113af91610233565b61139b565b9052565b906113c96113c2602093611382565b809261139e565b0190565b6113e2906113d9610221565b918291826113b3565b03902090565b6113f1906113cd565b90565b634e487b7160e01b5f52602260045260245ffd5b9060016002830492168015611428575b602083101461142357565b6113f4565b91607f1691611418565b60209181520190565b5f5260205f2090565b905f929180549061145e61145783611408565b8094611432565b916001811690815f146114b55750600114611479575b505050565b611486919293945061143b565b915f925b81841061149d57505001905f8080611474565b6001816020929593955484860152019101929061148a565b92949550505060ff19168252151560200201905f8080611474565b906114da91611444565b90565b906114fd6114f6926114ed610221565b938480926114d0565b038361080f565b565b611508906114dd565b90565b60200190565b6bffffffffffffffffffffffff191690565b61152d9051611511565b90565b1b90565b61154e61154961154383611157565b9261150b565b611523565b906014811061155c575b5090565b61157a906bffffffffffffffffffffffff1990601403600802611530565b165f611558565b60601c90565b61159b6115966115a092610277565b611321565b610277565b90565b6115af6115b491611581565b611587565b90565b6115c0906115a3565b90565b6115fb6115f66115f16115ec611600946115db61131d565b5060016115e661396e565b01611340565b6113e8565b6114ff565b611534565b6115b7565b90565b5f90565b90565b60e01b90565b61162461161f61162992611607565b61160a565b6102e5565b90565b6116396349064906611610565b90565b611644611603565b508061165f61165961165461162c565b6102e5565b916102e5565b1490811561166c575b5090565b6116769150613992565b5f611668565b606090565b60209181520190565b5f5260205f2090565b905f92918054906116ad6116a683611408565b8094611681565b916001811690815f1461170457506001146116c8575b505050565b6116d5919293945061168a565b915f925b8184106116ec57505001905f80806116c3565b600181602092959395548486015201910192906116d9565b92949550505060ff19168252151560200201905f80806116c3565b9061172991611693565b90565b9061174c6117459261173c610221565b9384809261171f565b038361080f565b565b6117579061172c565b90565b61176261167c565b506117755f61176f6139fa565b0161174e565b90565b6117949061178461131d565b5061178e81613a1e565b50613a8a565b90565b906117ab91906117a5613ab2565b91613abf565b565b5f7f4e6f7420617574686f72697a6564000000000000000000000000000000000000910152565b6117e1600e6020926103a1565b6117ea816117ad565b0190565b6118039060208101905f8183039101526117d4565b90565b1561180d57565b611815610221565b62461bcd60e51b81528061182b600482016117ee565b0390fd5b61183a91369161087b565b90565b61184690611587565b90565b6118529061183d565b90565b919061186f8161186881611874956103a1565b8095610870565b6103b5565b0190565b909161188f9260208301925f818503910152611855565b90565b61189b81612ba2565b336118ae6118a883610282565b91610282565b14908115611956575b50801561192f575b6118c890611806565b6118dd816118d784869061182f565b90613c09565b909190339161191561190f7f3a2c7fffc2cba7582c690e3b82c453ea02a308326a98a3ad7576c606336409fb93611324565b93611849565b9361192a611921610221565b92839283611878565b0390a3565b506118c83361194e61194861194385611778565b610282565b91610282565b1490506118bf565b61196291503390613777565b5f6118b7565b5f7f322e302e30000000000000000000000000000000000000000000000000000000910152565b6119996005610f9a565b906119a660208301611968565b565b6119b061198f565b90565b6119bb61167c565b506119c46119a8565b90565b5f90565b5f1c90565b90565b6119df6119e4916119cb565b6119d0565b90565b6119f190546119d3565b90565b634e487b7160e01b5f52601160045260245ffd5b611a1190610233565b5f198114611a1f5760010190565b6119f4565b5f1b90565b90611a355f1991611a24565b9181191691161790565b90565b90611a57611a52611a5e92611324565b611a3f565b8254611a29565b9055565b60601b90565b611a7190611a62565b90565b611a7d90611a68565b90565b611a8c611a9191610282565b611a74565b9052565b611aa181601493611a80565b0190565b601f602091010490565b91906008611aca910291611ac45f1984611530565b92611530565b9181191691161790565b9190611aea611ae5611af293611324565b611a3f565b908354611aaf565b9055565b611b0891611b026119c7565b91611ad4565b565b5f5b828110611b1857505050565b80611b275f6001938501611af6565b01611b0c565b9190601f8111611b3d575b505050565b818111611b4a575b611b38565b611b5f611b59611b7d9461143b565b91611aa5565b916020611b6b82611aa5565b9110611b85575b809101910390611b0a565b5f8080611b45565b505f611b72565b1c90565b90611ba0905f1990600802611b8c565b191690565b81611baf91611b90565b906002021790565b90611bc181611157565b9067ffffffffffffffff8211611c8157611be582611bdf8554611408565b85611b2d565b602090601f8311600114611c1957918091611c08935f92611c0d575b5050611ba5565b90555b565b90915001515f80611c01565b601f19831691611c288561143b565b925f5b818110611c6957509160029391856001969410611c4f575b50505002019055611c0b565b611c5f910151601f841690611b90565b90555f8080611c43565b91936020600181928787015181550195019201611c2b565b6107fb565b90611c9091611bb7565b565b611c9d5f80926103a1565b0190565b611cb69060208101905f818303910152611c92565b90565b611cc290611382565b90565b611ccd610221565b80611cd781611cb9565b03902090565b611cea600b6020926103a1565b611cf38161135b565b0190565b611d1c91611d0e604083018381035f850152611cdd565b916020818403910152611164565b90565b611d276119c7565b50611d3061396e565b90611d98611d77611d93611d8e60015f8701611d5e611d4e826119e7565b91611d5883611a08565b90611a42565b96611d8633611d6b610221565b96879160208301611a95565b6020820181038252038661080f565b018690611340565b6113e8565b611c86565b611da3338390613c62565b8133611dd8611dd27fca52e62c367d81bb2e328eb795f7c7ba24afb478408a26c0e201d155c449bc4a93611324565b91611849565b91611de1610221565b80611deb81611ca1565b0390a3611e0a82611e1933611dfe610221565b93849160208301611a95565b6020820181038252038361080f565b611e437f2c149ed548c6d2993cd73efe187df6eccabe4538091b33adbd25fafdb8a1468b91611324565b90611e61611e4f611cc5565b93611e58610221565b91829182611cf7565b0390a3565b90565b611e7d611e78611e8292611e66565b611321565b610277565b90565b611e8e90611e69565b90565b604090611eba611ec19496959396611eb060608401985f85019061028e565b60208301906105f5565b019061028e565b565b919080611ee0611eda611ed55f611e85565b610282565b91610282565b14611f3757611ef89082611ef2613ab2565b91613c78565b9182611f0c611f0683610282565b91610282565b03611f1657505050565b611f339091925f9384936364283d7b60e01b855260048501611e91565b0390fd5b611f5a611f435f611e85565b5f918291633250574960e11b83526004830161029b565b0390fd5b5f7f6261642077616c6c657400000000000000000000000000000000000000000000910152565b611f92600a6020926103a1565b611f9b81611f5e565b0190565b611fb49060208101905f818303910152611f85565b90565b15611fbe57565b611fc6610221565b62461bcd60e51b815280611fdc60048201611f9f565b0390fd5b5f7f6578706972656400000000000000000000000000000000000000000000000000910152565b61201460076020926103a1565b61201d81611fe0565b0190565b6120369060208101905f818303910152612007565b90565b1561204057565b612048610221565b62461bcd60e51b81528061205e60048201612021565b0390fd5b90565b61207961207461207e92612062565b611321565b610233565b90565b61208c61012c612065565b90565b61209e6120a491939293610233565b92610233565b82018092116120af57565b6119f4565b5f7f646561646c696e6520746f6f2066617200000000000000000000000000000000910152565b6120e860106020926103a1565b6120f1816120b4565b0190565b61210a9060208101905f8183039101526120db565b90565b1561211457565b61211c610221565b62461bcd60e51b815280612132600482016120f5565b0390fd5b7f678b53cd718d595370ab070ebf48edfdcd834beac116bf23e625fc7f4d5b7d3290565b909594926121a59461219461219e9261218a60809661218060a088019c5f890190610a5f565b60208701906105f5565b604085019061028e565b606083019061028e565b01906105f5565b565b6121b29136916108f7565b90565b634e487b7160e01b5f52602160045260245ffd5b600411156121d357565b6121b5565b906121e2826121c9565b565b91906121fe816121f7816122039561115b565b8095610870565b6103b5565b0190565b9161222c93919261221f60408201945f830190610a5f565b60208185039101526121e4565b90565b9061224161223c836108d4565b610838565b918252565b606090565b3d5f146122665761225b3d61222f565b903d5f602084013e5b565b61226e612246565b90612264565b90565b61228b61228661229092612274565b611321565b610233565b90565b905051906122a0826102f1565b565b906020828203126122bb576122b8915f01612293565b90565b61022b565b90565b6122d76122d26122dc926122c0565b61160a565b6102e5565b90565b6122ec631626ba7e6122c3565b90565b5f7f696e76616c69642077616c6c6574207369670000000000000000000000000000910152565b61232360126020926103a1565b61232c816122ef565b0190565b6123459060208101905f818303910152612316565b90565b1561234f57565b612357610221565b62461bcd60e51b81528061236d60048201612330565b0390fd5b9092612512946124726125219461245a61238a86612ba2565b3361239d61239783610282565b91610282565b14801561267f575b8015612658575b6123b590611806565b6123da896123d36123cd6123c85f611e85565b610282565b91610282565b1415611fb7565b6123f7426123f06123ea86610233565b91610233565b1115612039565b6124258361241e6124186124134261240d612081565b9061208f565b610233565b91610233565b111561210d565b61244b612430612136565b9188948b91909161243f610221565b9687956020870161215a565b6020820181038252038261080f565b61246c61246682611157565b9161150b565b20613d57565b91612488836124828385906121a7565b90613db7565b5061249b6124955f6121d8565b916121d8565b141590811561263c575b5061256e575b5050506124fd6124dc6124f86124f360016124c461396e565b6124eb896124d0610221565b96879160208301611a95565b6020820181038252038661080f565b018590611340565b6113e8565b611c86565b91612506610221565b93849160208301611a95565b6020820181038252038361080f565b61254b7f2c149ed548c6d2993cd73efe187df6eccabe4538091b33adbd25fafdb8a1468b91611324565b90612569612557611cc5565b93612560610221565b91829182611cf7565b0390a3565b6125d5925f926125b084936125a18a949193612588610221565b948593600460208601630b135d3f60e11b815201612207565b6020820181038252038261080f565b602081019051915afa6125c161224b565b9080612618575b90816125dd575b50612348565b5f80806124ab565b6125f8915060206125ed82611157565b8183010191016122a2565b61261161260b6126066122df565b6102e5565b916102e5565b145f6125cf565b5061262281611157565b61263561262f6020612277565b91610233565b10156125c8565b905061265061264a88610282565b91610282565b14155f6124a5565b506123b53361267761267161266c8b611778565b610282565b91610282565b1490506123ac565b5061268b813390613777565b6123a5565b5f5260205f2090565b9190601f81116126a9575b505050565b8181116126b6575b6126a4565b6126cb6126c56126e994612690565b91611aa5565b9160206126d782611aa5565b91106126f1575b809101910390611b0a565b5f80806126b1565b505f6126de565b61270c5f6127068354611408565b83612699565b5f80019055565b61271c906126f8565b565b6127295f809261115b565b0190565b61275290612744604082018281035f840152611cdd565b90602081830391015261271e565b90565b61275e81612ba2565b3361277161276b83610282565b91610282565b14908115612821575b5080156127fa575b61278b90611806565b6127b06127ab6127a6600161279e61396e565b018490611340565b6113e8565b612713565b6127da7f2c149ed548c6d2993cd73efe187df6eccabe4538091b33adbd25fafdb8a1468b91611324565b6127e2611cc5565b916127eb610221565b806127f58161272d565b0390a3565b5061278b3361281961281361280e85611778565b610282565b91610282565b149050612782565b61282d91503390613777565b5f61277a565b61283c5f610f9a565b90565b612847612833565b90565b9161285e929161285861283f565b926135b0565b565b90565b7f2ac6109326e720d1435c0db66f7e35eda7839f52b6f1f5520a60788e132b4e3990565b5f7f7265736572766564206b65790000000000000000000000000000000000000000910152565b6128bb600c6020926103a1565b6128c481612887565b0190565b6128dd9060208101905f8183039101526128ae565b90565b156128e757565b6128ef610221565b62461bcd60e51b815280612905600482016128c8565b0390fd5b61292e6129259260209261291c8161039d565b94858093611356565b938491016103aa565b0190565b6129426129499160209493612909565b809261139e565b0190565b612961612958610221565b92839283612932565b03902090565b6129709161294d565b90565b61297c91612909565b90565b6129949061298b610221565b91829182612973565b03902090565b90916129b46129c29360408401908482035f8601526103bf565b916020818403910152611164565b90565b6129ce81613e5c565b336129e16129db83610282565b91610282565b14908115612ad9575b508015612ab2575b6129fb90611806565b612a3a612a0783612860565b612a19612a1382611157565b9161150b565b20612a33612a2d612a28612863565b610a5c565b91610a5c565b14156128e0565b612a63612a4561396e565b612a5e612a5760018793018590611340565b8590612967565b611c86565b8192612a98612a927f2c149ed548c6d2993cd73efe187df6eccabe4538091b33adbd25fafdb8a1468b93611324565b9361297f565b93612aad612aa4610221565b9283928361299a565b0390a3565b506129fb33612ad1612acb612ac685611778565b610282565b91610282565b1490506129f2565b612ae591503390613777565b5f6129ea565b90612afd91612af8613e90565b612aff565b565b90612b1291612b0d81613f42565b613fc2565b565b90612b1e91612aeb565b565b5f90565b612b3590612b306140c0565b612b83565b90565b90565b612b4f612b4a612b5492612b38565b611a24565b610a5c565b90565b612b807f360894a13ba1a3210667c828492db98dca3e2076cc3735a920a3ca505d382bbc612b3b565b90565b50612b8c612b57565b90565b612b9f612b9a612b20565b612b24565b90565b612bb490612bae61131d565b50613a1e565b90565b90612bc190611849565b5f5260205260405f2090565b612bd56119c7565b50612bde6139fa565b81612bf9612bf3612bee5f611e85565b610282565b91610282565b14612c1657612c13916003612c0e9201612bb7565b6119e7565b90565b612c39612c225f611e85565b5f9182916322718ad960e21b83526004830161029b565b0390fd5b612c4561411e565b612c4d612c4f565b565b612c60612c5b5f611e85565b6141aa565b565b612c6a612c3d565b565b90565b67ffffffffffffffff1690565b612c90612c8b612c9592612c6c565b611321565b612c6f565b90565b60401c90565b60ff1690565b612cb0612cb591612c98565b612c9e565b90565b612cc29054612ca4565b90565b67ffffffffffffffff1690565b612cde612ce3916119cb565b612cc5565b90565b612cf09054612cd2565b90565b90612d0667ffffffffffffffff91611a24565b9181191691161790565b612d24612d1f612d2992612c6f565b611321565b612c6f565b90565b90565b90612d44612d3f612d4b92612d10565b612d2c565b8254612cf3565b9055565b60401b90565b90612d6968ff000000000000000091612d4f565b9181191691161790565b612d7c90610332565b90565b90565b90612d97612d92612d9e92612d73565b612d7f565b8254612d55565b9055565b612dab90612c6f565b9052565b9190612dc2905f60208501940190612da2565b565b612dce6001612c7c565b612dd6614216565b612de15f8201612cb8565b8015612e71575b612e5557612e1a90612dfc835f8301612d2f565b612e0960015f8301612d82565b612e11612fc2565b5f809101612d82565b612e507fc7f505b2f371ae2175ee4913f4499e1f2633a7b5936321eed1cdaeb6115181d291612e47610221565b91829182612daf565b0390a1565b5f63f92ee8a960e01b815280612e6d600482016104c2565b0390fd5b50612e7d5f8201612ce6565b612e8f612e8984612c6f565b91612c6f565b1015612de8565b5f7f4167656e744964656e7469747900000000000000000000000000000000000000910152565b612ec7600d610f9a565b90612ed460208301612e96565b565b612ede612ebd565b90565b5f7f4147454e54000000000000000000000000000000000000000000000000000000910152565b612f126005610f9a565b90612f1f60208301612ee1565b565b612f29612f08565b90565b5f7f455243383030344964656e746974795265676973747279000000000000000000910152565b612f5d6017610f9a565b90612f6a60208301612f2c565b565b612f74612f53565b90565b5f7f3100000000000000000000000000000000000000000000000000000000000000910152565b612fa86001610f9a565b90612fb560208301612f77565b565b612fbf612f9e565b90565b612fdb612fcd612ed6565b612fd5612f21565b90614241565b612fe3614257565b612ffc612fee612f6c565b612ff6612fb7565b90614281565b613005336142ab565b565b61300f612dc4565b565b5f90565b606090565b90565b61302961302e916119cb565b61301a565b90565b61303b905461301d565b90565b61305261304d61305792611e66565b611a24565b610a5c565b90565b5f7f4549503731323a20556e696e697469616c697a65640000000000000000000000910152565b61308e60156020926103a1565b6130978161305a565b0190565b6130b09060208101905f818303910152613081565b90565b156130ba57565b6130c2610221565b62461bcd60e51b8152806130d86004820161309b565b0390fd5b6130e59061183d565b90565b6130fc6130f761310192611e66565b611321565b610233565b90565b67ffffffffffffffff811161311c5760208091020190565b6107fb565b9061313361312e83613104565b610838565b918252565b369037565b9061316261314a83613121565b926020806131588693613104565b9201910390613138565b565b600f60f81b90565b613174613011565b5061317d61167c565b5061318661167c565b5061318f6119c7565b5061319861131d565b506131a1612b20565b506131aa613015565b506131e16131b66142b6565b6131c15f8201613031565b6131d36131cd5f61303e565b91610a5c565b14908161322c575b506130b3565b6131e96142da565b906131f26142f9565b9046906131fe306130dc565b906132085f61303e565b9061321a6132155f6130e8565b61313d565b90613223613164565b96959493929190565b6132399150600101613031565b61324b6132455f61303e565b91610a5c565b145f6131db565b60018060a01b031690565b61326961326e916119cb565b613252565b90565b61327b905461325d565b90565b61328661131d565b506132995f613293614318565b01613271565b90565b60016132a89101610233565b90565b5190565b634e487b7160e01b5f52603260045260245ffd5b906132cd826132ab565b8110156132de576020809102010190565b6132af565b91906132ed6119c7565b506132f661396e565b5f8101613315613305826119e7565b9161330f83611a08565b90611a42565b9361335e61333461334333613328610221565b92839160208301611a95565b6020820181038252038261080f565b613359613354600186018990611340565b6113e8565b611c86565b613369338690613c62565b613374858290613c09565b8433906133bf6133ad6133a77fca52e62c367d81bb2e328eb795f7c7ba24afb478408a26c0e201d155c449bc4a93611324565b93611849565b936133b6610221565b918291826103f0565b0390a36133de846133ed336133d2610221565b93849160208301611a95565b6020820181038252038361080f565b6134177f2c149ed548c6d2993cd73efe187df6eccabe4538091b33adbd25fafdb8a1468b91611324565b90613435613423611cc5565b9361342c610221565b91829182611cf7565b0390a36134406119c7565b5b8061345c613456613451866132ab565b610233565b91610233565b101561357657613571906134b36134805f6134788785906132c3565b510151612860565b61349261348c82611157565b9161150b565b206134ac6134a66134a1612863565b610a5c565b91610a5c565b14156128e0565b6134f160206134c38684906132c3565b5101516134ec6134d7600187018a90611340565b5f6134e38987906132c3565b51015190612967565b611c86565b855f6134fe8684906132c3565b5101515f61350d8785906132c3565b51015191602061351e8886906132c3565b51015161355461354e7f2c149ed548c6d2993cd73efe187df6eccabe4538091b33adbd25fafdb8a1468b93611324565b9361297f565b93613569613560610221565b9283928361299a565b0390a361329c565b613441565b505050565b61358361167c565b5061359760016135916139fa565b0161174e565b90565b6135ae916135a6613ab2565b919091614372565b565b916135d493916135c284828491611ec3565b6135ca613ab2565b9390919293614495565b565b906135e090611324565b5f5260205260405f2090565b6135fa906136009392612909565b90612909565b90565b613622929161362e91613614610221565b9485926020840192836135ec565b9081038252038361080f565b565b61363861167c565b5061365f61365a5f6136486145e9565b61365185613a1e565b500183906135d6565b61174e565b613667614618565b61367861367382612860565b611157565b61368a6136845f6130e8565b91610233565b146136d2576136a061369b83612860565b611157565b6136b26136ac5f6130e8565b91610233565b116136c55750506136c29061462c565b90565b6136cf9250613603565b90565b50905090565b613706916136fc613701926136eb612246565b5060016136f661396e565b01611340565b612967565b6114ff565b90565b61372791613715611603565b5061371f81612ba2565b919091614698565b90565b9061373490611849565b5f5260205260405f2090565b9061374a90611849565b5f5260205260405f2090565b613762613767916119cb565b612c9e565b90565b6137749054613756565b90565b6137a59161379b6137a09261378a611603565b5060056137956139fa565b0161372a565b613740565b61376a565b90565b906137b16119c7565b506137ba61396e565b9161382261380161381d61381860015f88016137e86137d8826119e7565b916137e283611a08565b90611a42565b97613810336137f5610221565b96879160208301611a95565b6020820181038252038661080f565b018790611340565b6113e8565b611c86565b61382d338490613c62565b613838838290613c09565b82339061388361387161386b7fca52e62c367d81bb2e328eb795f7c7ba24afb478408a26c0e201d155c449bc4a93611324565b93611849565b9361387a610221565b918291826103f0565b0390a36138a2826138b133613896610221565b93849160208301611a95565b6020820181038252038361080f565b6138db7f2c149ed548c6d2993cd73efe187df6eccabe4538091b33adbd25fafdb8a1468b91611324565b906138f96138e7611cc5565b936138f0610221565b91829182611cf7565b0390a3565b61390f9061390a61411e565b613911565b565b8061392c6139266139215f611e85565b610282565b91610282565b1461393c5761393a906141aa565b565b61395f6139485f611e85565b5f918291631e4fbdf760e01b83526004830161029b565b0390fd5b61396c906138fe565b565b7fa040f782729de4970518741823ec1276cbcd41a0c7493f62d173341566a04e0090565b61399a611603565b50806139b56139af6380ac58cd60e01b6102e5565b916102e5565b1480156139d9575b9081156139c9575b5090565b6139d39150614738565b5f6139c5565b50806139f46139ee635b5e139f60e01b6102e5565b916102e5565b146139bd565b7f80bb2b638cc20bc4d0a60d66940f3ab4a00c1d7b313497ca82fb0b4ab007930090565b613a2661131d565b50613a3081613e5c565b9081613a4c613a46613a415f611e85565b610282565b91610282565b14613a55575090565b613a70905f918291637e27328960e01b835260048301610602565b0390fd5b90613a7e90611324565b5f5260205260405f2090565b613aaa613aaf91613a9961131d565b506004613aa46139fa565b01613a74565b613271565b90565b613aba61131d565b503390565b91613acd929160019261475e565b565b9190601f8111613adf575b505050565b818111613aec575b613ada565b613b01613afb613b1f9461168a565b91611aa5565b916020613b0d82611aa5565b9110613b27575b809101910390611b0a565b5f8080613ae7565b505f613b14565b90613b388161039d565b9067ffffffffffffffff8211613bf857613b5c82613b568554611408565b85613acf565b602090601f8311600114613b9057918091613b7f935f92613b84575b5050611ba5565b90555b565b90915001515f80613b78565b601f19831691613b9f8561168a565b925f5b818110613be057509160029391856001969410613bc6575b50505002019055613b82565b613bd6910151601f841690611b90565b90555f8080613bba565b91936020600181928787015181550195019201613ba2565b6107fb565b90613c0791613b2e565b565b90613c2790613c225f613c1a6145e9565b0184906135d6565b613bfd565b613c5d7ff8e1a15aba9398e019f0b49df1a4fde98ee17ae345cb5f6b5e2c27f5033e8ce791613c54610221565b91829182610602565b0390a1565b90613c769190613c7061283f565b916148b9565b565b91613cbe92613c8561131d565b50613c8f83613e5c565b613ca9613ca3613c9e5f611e85565b610282565b91610282565b141580613d34575b613cc1575b91909161491f565b90565b613ce6613ce1613cdc6001613cd461396e565b018690611340565b6113e8565b612713565b82613d117f2c149ed548c6d2993cd73efe187df6eccabe4538091b33adbd25fafdb8a1468b91611324565b613d19611cc5565b91613d22610221565b80613d2c8161272d565b0390a3613cb6565b5080613d50613d4a613d455f611e85565b610282565b91610282565b1415613cb1565b613d7190613d63612b20565b50613d6c614aae565b614ac2565b90565b5f90565b90565b613d8f613d8a613d9492613d78565b611321565b610233565b90565b613dab613da6613db092610233565b611a24565b610a5c565b90565b5f90565b919091613dc261131d565b50613dcb613d74565b50613dd4612b20565b50613dde83611157565b613df1613deb6041613d7b565b91610233565b145f14613e3857613e319192613e05612b20565b50613e0e612b20565b50613e17613db3565b506020810151606060408301519201515f1a909192614b87565b9192909190565b50613e425f611e85565b90613e56613e51600294611157565b613d97565b91929190565b613e7c613e8191613e6b61131d565b506002613e766139fa565b01613a74565b613271565b90565b613e8d9061183d565b90565b613e9930613e84565b613ecb613ec57f0000000000000000000000000000000000000000000000000000000000000000610282565b91610282565b148015613ef5575b613ed957565b5f63703e46dd60e11b815280613ef1600482016104c2565b0390fd5b50613efe614c83565b613f30613f2a7f0000000000000000000000000000000000000000000000000000000000000000610282565b91610282565b1415613ed3565b50613f4061411e565b565b613f4b90613f37565b565b613f5690611587565b90565b613f6290613f4d565b90565b613f6e9061183d565b90565b613f7a81610a5c565b03613f8157565b5f80fd5b90505190613f9282613f71565b565b90602082820312613fad57613faa915f01613f85565b90565b61022b565b613fba610221565b3d5f823e3d90fd5b9190613ff06020613fda613fd586613f59565b613f65565b6352d1902d90613fe8610221565b93849261160a565b82528180614000600482016104c2565b03915afa80915f92614090575b50155f1461404157505090600161402257505b565b61403d905f918291634c9c8ce360e01b83526004830161029b565b0390fd5b928361405c614056614051612b57565b610a5c565b91610a5c565b036140715761406c929350614ca9565b614020565b61408c845f918291632a87526960e21b835260048301610a6c565b0390fd5b6140b291925060203d81116140b9575b6140aa818361080f565b810190613f94565b905f61400d565b503d6140a0565b6140c930613e84565b6140fb6140f57f0000000000000000000000000000000000000000000000000000000000000000610282565b91610282565b0361410257565b5f63703e46dd60e11b81528061411a600482016104c2565b0390fd5b61412661327e565b61413f614139614134613ab2565b610282565b91610282565b0361414657565b614168614151613ab2565b5f91829163118cdaa760e01b83526004830161029b565b0390fd5b9061417d60018060a01b0391611a24565b9181191691161790565b90565b9061419f61419a6141a692611849565b614187565b825461416c565b9055565b6141b2614318565b6141ca6141c05f8301613271565b915f84910161418a565b906141fe6141f87f8be0079c531659141344cd1fd0a4f28419497f9722a3daafe3b4186f6b6457e093611849565b91611849565b91614207610221565b80614211816104c2565b0390a3565b61421e614d7d565b90565b906142339161422e614d91565b614235565b565b9061423f91614dfb565b565b9061424b91614221565b565b614255614d91565b565b61425f61424d565b565b906142739161426e614d91565b614275565b565b9061427f91614ea0565b565b9061428b91614261565b565b61429e90614299614d91565b6142a0565b565b6142a990614f11565b565b6142b49061428d565b565b7fa16a46d94261c7517cc8ff89f61c0ce93598e3c849801011dee649a6a557d10090565b6142e261167c565b506142f660026142f06142b6565b0161174e565b90565b61430161167c565b50614315600361430f6142b6565b0161174e565b90565b7f9016d09d72d40fdae2fd8ceac6b6234c7706214fd39c1cd1e609a0528c19930090565b9061434860ff91611a24565b9181191691161790565b9061436761436261436e92612d73565b612d7f565b825461433c565b9055565b91909161437d6139fa565b8361439861439261438d5f611e85565b610282565b91610282565b1461440f576143bf906143ba6143b36005869301859061372a565b8690613740565b614352565b91909161440a6143f86143f27f17307eab39ab6107e8899845ad3d59bd9653f200f220920489ca2b5937696c3193611849565b93611849565b93614401610221565b91829182610344565b0390a3565b61442a845f918291630b61174360e31b83526004830161029b565b0390fd5b61443790611587565b90565b6144439061442e565b90565b61444f9061183d565b90565b90926144859061447b614492969461447160808601975f87019061028e565b602085019061028e565b60408301906105f5565b6060818403910152611164565b90565b9193843b6144ab6144a55f6130e8565b91610233565b116144b8575b5050505050565b6144f05f6020946144fb6144d36144ce8a61443a565b614446565b9463150b7a029296986144e4610221565b998a988997889661160a565b865260048601614452565b03925af180915f926145b9575b50155f146145765750600161452357505b5f808080806144b1565b61452b61224b565b9061453582611157565b6145476145415f6130e8565b91610233565b145f1461456d57614569905f918291633250574960e11b83526004830161029b565b0390fd5b50602081519101fd5b61458f614589630a85bd0160e11b6102e5565b916102e5565b0361459a5750614519565b6145b5905f918291633250574960e11b83526004830161029b565b0390fd5b6145db91925060203d81116145e2575b6145d3818361080f565b8101906122a2565b905f614508565b503d6145c9565b7f0542a41881ee128a365a727b282c86fa859579490b9bb45aab8503648c8e790090565b614615612833565b90565b61462061167c565b5061462961460d565b90565b61463461167c565b5061463e81613a1e565b50614647614618565b9061465961465483612860565b611157565b61466b6146655f6130e8565b91610233565b115f146146895761467f6146859291614fac565b90613603565b5b90565b505061469361460d565b614686565b91906146a2611603565b50806146be6146b86146b35f611e85565b610282565b91610282565b141592836146cd575b50505090565b80919293506146e46146de84610282565b91610282565b14908115614726575b50918215614700575b50505f80806146c7565b61471e91925061471261471891613a8a565b92610282565b91610282565b145f806146f6565b61473291508290613777565b5f6146ed565b614740611603565b5061475a6147546301ffc9a760e01b6102e5565b916102e5565b1490565b90916147686139fa565b93808015614896575b614791575b505061478f9291600461478a929301613a74565b61418a565b565b61479a84613a1e565b91806147b66147b06147ab5f611e85565b610282565b91610282565b14158061487b575b80614861575b614842575061478a9261478f9594926004926147e7575b50925081939450614776565b81849061482661482061481a7f8c5be1e5ebec7d5bd14f71427d1e84f3dd0314c0f7b2291e5b200ac8c7c3b92595611849565b92611849565b92611324565b9261482f610221565b80614839816104c2565b0390a45f6147db565b61485d905f91829163a9fbf51f60e01b83526004830161029b565b0390fd5b50614876614870848390613777565b15610332565b6147c4565b508261488f61488983610282565b91610282565b14156147be565b50816148b26148ac6148a75f611e85565b610282565b91610282565b1415614771565b90916148e5926148ca838290615055565b6148d2613ab2565b926148dc5f611e85565b90919293614495565b565b6148fb6148f661490092612c6c565b611321565b610233565b90565b9061490e9103610233565b90565b9061491c9101610233565b90565b9061492861131d565b506149b66149346139fa565b61493d83613e5c565b948061495961495361494e5f611e85565b610282565b91610282565b03614a9b575b508461497b6149756149705f611e85565b610282565b91610282565b03614a45575b8361499c6149966149915f611e85565b610282565b91610282565b03614a0d575b6149b160028592018490613a74565b61418a565b82916149f46149ee6149e87fddf252ad1be2c89b69c2b068fc378daa952ba7f163c4a11628f55a4df523b3ef95611849565b92611849565b92611324565b926149fd610221565b80614a07816104c2565b0390a490565b614a40614a1a60016148e7565b614a3a614a2b600385018890612bb7565b91614a35836119e7565b614911565b90611a42565b6149a2565b614a63614a515f611e85565b84614a5b5f611e85565b905f9261475e565b614a96614a7060016148e7565b614a90614a81600385018990612bb7565b91614a8b836119e7565b614903565b90611a42565b614981565b614aa8908690859161511c565b5f61495f565b614ab6612b20565b50614abf615209565b90565b604291614acd612b20565b50604051917f19010000000000000000000000000000000000000000000000000000000000008352600283015260228201522090565b614b0f614b14916119cb565b611324565b90565b90565b614b2e614b29614b3392614b17565b611321565b610233565b90565b60ff1690565b614b4590614b36565b9052565b614b7e614b8594614b74606094989795614b6a608086019a5f870190610a5f565b6020850190614b3c565b6040830190610a5f565b0190610a5f565b565b939293614b9261131d565b50614b9b613d74565b50614ba4612b20565b50614bae85614b03565b614be0614bda7f7fffffffffffffffffffffffffffffff5d576e7357a4501ddfe92f46681b20a0614b1a565b91610233565b11614c6d5790614c03602094955f94939293614bfa610221565b94859485614b49565b838052039060015afa15614c6857614c1b5f51611a24565b80614c36614c30614c2b5f611e85565b610282565b91610282565b14614c4c575f91614c465f61303e565b91929190565b50614c565f611e85565b600191614c625f61303e565b91929190565b613fb2565b505050614c795f611e85565b9060039291929190565b614c8b61131d565b50614ca65f614ca0614c9b612b57565b615275565b01613271565b90565b90614cb382615278565b81614cde7fbc7cd75a20ee27fd9adebab32041f755214dbc6bffa90cc0225b39da2e5c2d3b91611849565b90614ce7610221565b80614cf1816104c2565b0390a2614cfd81611157565b614d0f614d095f6130e8565b91610233565b115f14614d2357614d1f91615303565b505b565b5050614d2d6152cd565b614d21565b90565b614d49614d44614d4e92614d32565b611a24565b610a5c565b90565b614d7a7ff0c57e16840df040f15088dc2f81fe391c3923bec73e23a9662efc9c229c6a00614d35565b90565b614d85612b20565b50614d8e614d51565b90565b614da2614d9c6153d6565b15610332565b614da857565b5f631afcd79f60e31b815280614dc0600482016104c2565b0390fd5b90614dd691614dd1614d91565b614dd8565b565b6001614df992614df2614de96139fa565b935f8501613bfd565b9101613bfd565b565b90614e0591614dc4565b565b90614e1991614e14614d91565b614e53565b565b614e2490610a5c565b90565b614e30906119cb565b90565b90614e48614e43614e4f92614e1b565b614e27565b8254611a29565b9055565b614e78614e9e92614e6f614e656142b6565b9360028501613bfd565b60038301613bfd565b614e8c614e845f61303e565b5f8301614e33565b6001614e975f61303e565b9101614e33565b565b90614eaa91614e07565b565b614ebd90614eb8614d91565b614ebf565b565b80614eda614ed4614ecf5f611e85565b610282565b91610282565b14614eea57614ee8906141aa565b565b614f0d614ef65f611e85565b5f918291631e4fbdf760e01b83526004830161029b565b0390fd5b614f1a90614eac565b565b369037565b90614f46614f2e83610f9a565b92602080614f3c869361084d565b9201910390614f1c565b565b6001614f549103610233565b90565b90565b614f6e614f69614f7392614f57565b611321565b610233565b90565b634e487b7160e01b5f52601260045260245ffd5b614f96614f9c91610233565b91610233565b908115614fa7570490565b614f76565b614fb461167c565b50614fd1614fc182615549565b614fcb60016148e7565b90614911565b90614fdb82614f21565b91614fe46119c7565b5060208301015b60011561504e57614ffe61502a91614f48565b916f181899199a1a9b1b9c1cb0b131b232b360811b600a82061a8353615024600a614f5a565b90614f8a565b8061503d6150375f6130e8565b91610233565b146150485790614feb565b50505b90565b505061504b565b908161507161506b6150665f611e85565b610282565b91610282565b146150d25761508a91906150845f611e85565b91613c78565b6150a461509e6150995f611e85565b610282565b91610282565b036150ab57565b6150ce6150b75f611e85565b5f9182916339e3563760e11b83526004830161029b565b0390fd5b6150f56150de5f611e85565b5f918291633250574960e11b83526004830161029b565b0390fd5b91602061511a92949361511360408201965f83019061028e565b01906105f5565b565b61513161512b82848691614698565b15610332565b61513a57505050565b61515461514e6151495f611e85565b610282565b91610282565b145f1461517a57615176825f918291637e27328960e01b835260048301610602565b0390fd5b6151945f92839263177e802f60e01b8452600484016150f9565b0390fd5b7f8b73c3c69bb8fe3d512ecc4cf759cc79239f7b179b0ffacaa9a75d522b39400f90565b90959492615207946151f6615200926151ec6080966151e260a088019c5f890190610a5f565b6020870190610a5f565b6040850190610a5f565b60608301906105f5565b019061028e565b565b615211612b20565b5061521a615198565b61525f6152256157aa565b9161525061523161585c565b4661523b306130dc565b91615244610221565b968795602087016151bc565b6020820181038252038261080f565b61527161526b82611157565b9161150b565b2090565b90565b803b61528c6152865f6130e8565b91610233565b146152ae576152ac905f6152a66152a1612b57565b615275565b0161418a565b565b6152c9905f918291634c9c8ce360e01b83526004830161029b565b0390fd5b346152e06152da5f6130e8565b91610233565b116152e757565b5f63b398979f60e01b8152806152ff600482016104c2565b0390fd5b9061531790615310612246565b508261590f565b8080615393575b5f1461533157505061532e615940565b90565b5f1461535657615352905f918291639996b31560e01b83526004830161029b565b0390fd5b61535e615928565b61537061536a5f6130e8565b91610233565b115f03615935575f63d6bda27560e01b81528061538f600482016104c2565b0390fd5b5061539c615928565b6153ae6153a85f6130e8565b91610233565b1180156153bb575b61531e565b50813b6153d06153ca5f6130e8565b91610233565b116153b6565b6153de611603565b506153f15f6153eb614216565b01612cb8565b90565b90565b61540b615406615410926153f4565b611321565b610233565b90565b90565b61542a61542561542f92615413565b611321565b610233565b90565b90565b61544961544461544e92615432565b611321565b610233565b90565b90565b61546861546361546d92615451565b611321565b610233565b90565b90565b61548761548261548c92615470565b611321565b610233565b90565b90565b6154a66154a16154ab9261548f565b611321565b610233565b90565b90565b6154c56154c06154ca926154ae565b611321565b610233565b90565b90565b6154e46154df6154e9926154cd565b611321565b610233565b90565b90565b6155036154fe615508926154ec565b611321565b610233565b90565b90565b61552261551d6155279261550b565b611321565b610233565b90565b90565b61554161553c6155469261552a565b611321565b610233565b90565b6155516119c7565b5061555b5f6130e8565b908061558a6155847a184f03e93ff9f4daa797ed6e38ed64bf6a1f0100000000000000006153f7565b91610233565b1015615762575b806155b26155ac6d04ee2d6d415b85acef8100000000615435565b91610233565b1015615727575b806155d36155cd662386f26fc10000615454565b91610233565b10156156f3575b806155f16155eb6305f5e100615492565b91610233565b10156156c2575b8061560d6156076127106154d0565b91610233565b1015615693575b80615628615622606461550e565b91610233565b1015615665575b61564261563c600a614f5a565b91610233565b101561564c575b90565b6156609061565a60016148e7565b90614911565b615649565b61567c61568d91615676606461550e565b90614f8a565b91615687600261552d565b90614911565b9061562f565b6156ab6156bc916156a56127106154d0565b90614f8a565b916156b660046154ef565b90614911565b90615614565b6156dc6156ed916156d66305f5e100615492565b90614f8a565b916156e760086154b1565b90614911565b906155f8565b6157106157219161570a662386f26fc10000615454565b90614f8a565b9161571b6010615473565b90614911565b906155da565b61574b61575c916157456d04ee2d6d415b85acef8100000000615435565b90614f8a565b916157566020612277565b90614911565b906155b9565b6157936157a49161578d7a184f03e93ff9f4daa797ed6e38ed64bf6a1f0100000000000000006153f7565b90614f8a565b9161579e6040615416565b90614911565b90615591565b6157b2612b20565b506157bb6142b6565b6157c36142da565b6157d46157cf82612860565b611157565b6157e66157e05f6130e8565b91610233565b115f1461580d576157f79150612860565b61580961580382611157565b9161150b565b2090565b505f6158199101613031565b8061582c6158265f61303e565b91610a5c565b14155f146158375790565b507fc5d2460186f7233c927e7db2dcc703c0e500b653ca82273b7bfad8045d85a47090565b615864612b20565b5061586d6142b6565b6158756142f9565b61588661588182612860565b611157565b6158986158925f6130e8565b91610233565b115f146158bf576158a99150612860565b6158bb6158b582611157565b9161150b565b2090565b5060016158cc9101613031565b806158df6158d95f61303e565b91610a5c565b14155f146158ea5790565b507fc5d2460186f7233c927e7db2dcc703c0e500b653ca82273b7bfad8045d85a47090565b5f91829161591b611603565b50602082519201905af490565b6159306119c7565b503d90565b6040513d5f823e3d90fd5b615948612246565b50604051903d82523d5f602084013e3d602001820160405256fea2646970667358221220121a4fd884ccfe8a6f6daa8858ae7939d35a4d3ab7f9590ec75073e4bb1ca83a64736f6c63430008210033","linkReferences":{}},"methodIdentifiers":{"UPGRADE_INTERFACE_VERSION()":"ad3cb1cc","approve(address,uint256)":"095ea7b3","balanceOf(address)":"70a08231","eip712Domain()":"84b0196e","getAgentWallet(uint256)":"00339509","getApproved(uint256)":"081812fc","getMetadata(uint256,string)":"cb4799f2","getVersion()":"0d8e6e2c","initialize()":"8129fc1c","isApprovedForAll(address,address)":"e985e9c5","isAuthorizedOrOwner(address,uint256)":"d95e72be","name()":"06fdde03","owner()":"8da5cb5b","ownerOf(uint256)":"6352211e","proxiableUUID()":"52d1902d","register()":"1aa3a008","register(string)":"f2c298be","register(string,(string,bytes)[])":"8ea42286","renounceOwnership()":"715018a6","safeTransferFrom(address,address,uint256)":"42842e0e","safeTransferFrom(address,address,uint256,bytes)":"b88d4fde","setAgentURI(uint256,string)":"0af28bd3","setAgentWallet(uint256,address,uint256,bytes)":"2d1ef5ae","setApprovalForAll(address,bool)":"a22cb465","setMetadata(uint256,string,bytes)":"466648da","supportsInterface(bytes4)":"01ffc9a7","symbol()":"95d89b41","tokenURI(uint256)":"c87b56dd","transferFrom(address,address,uint256)":"23b872dd","transferOwnership(address)":"f2fde38b","unsetAgentWallet(uint256)":"3fddcf19","upgradeToAndCall(address,bytes)":"4f1ef286"},"id":0}