{"abi":[{"type":"constructor","inputs":[],"stateMutability":"nonpayable"},{"type":"function","name":"UPGRADE_INTERFACE_VERSION","inputs":[],"outputs":[{"name":"","type":"string","internalType":"string"}],"stateMutability":"view"},{"type":"function","name":"appendResponse","inputs":[{"name":"agentId","type":"uint256","internalType":"uint256"},{"name":"clientAddress","type":"address","internalType":"address"},{"name":"feedbackIndex","type":"uint64","internalType":"uint64"},{"name":"responseURI","type":"string","internalType":"string"},{"name":"responseHash","type":"bytes32","internalType":"bytes32"}],"outputs":[],"stateMutability":"nonpayable"},{"type":"function","name":"getClients","inputs":[{"name":"agentId","type":"uint256","internalType":"uint256"}],"outputs":[{"name":"","type":"address[]","internalType":"address[]"}],"stateMutability":"view"},{"type":"function","name":"getIdentityRegistry","inputs":[],"outputs":[{"name":"","type":"address","internalType":"address"}],"stateMutability":"view"},{"type":"function","name":"getLastIndex","inputs":[{"name":"agentId","type":"uint256","internalType":"uint256"},{"name":"clientAddress","type":"address","internalType":"address"}],"outputs":[{"name":"","type":"uint64","internalType":"uint64"}],"stateMutability":"view"},{"type":"function","name":"getResponseCount","inputs":[{"name":"agentId","type":"uint256","internalType":"uint256"},{"name":"clientAddress","type":"address","internalType":"address"},{"name":"feedbackIndex","type":"uint64","internalType":"uint64"},{"name":"responders","type":"address[]","internalType":"address[]"}],"outputs":[{"name":"count","type":"uint64","internalType":"uint64"}],"stateMutability":"view"},{"type":"function","name":"getSummary","inputs":[{"name":"agentId","type":"uint256","internalType":"uint256"},{"name":"clientAddresses","type":"address[]","internalType":"address[]"},{"name":"tag1","type":"string","internalType":"string"},{"name":"tag2","type":"string","internalType":"string"}],"outputs":[{"name":"count","type":"uint64","internalType":"uint64"},{"name":"summaryValue","type":"int128","internalType":"int128"},{"name":"summaryValueDecimals","type":"uint8","internalType":"uint8"}],"stateMutability":"view"},{"type":"function","name":"getVersion","inputs":[],"outputs":[{"name":"","type":"string","internalType":"string"}],"stateMutability":"pure"},{"type":"function","name":"giveFeedback","inputs":[{"name":"agentId","type":"uint256","internalType":"uint256"},{"name":"value","type":"int128","internalType":"int128"},{"name":"valueDecimals","type":"uint8","internalType":"uint8"},{"name":"tag1","type":"string","internalType":"string"},{"name":"tag2","type":"string","internalType":"string"},{"name":"endpoint","type":"string","internalType":"string"},{"name":"feedbackURI","type":"string","internalType":"string"},{"name":"feedbackHash","type":"bytes32","internalType":"bytes32"}],"outputs":[],"stateMutability":"nonpayable"},{"type":"function","name":"initialize","inputs":[{"name":"identityRegistry_","type":"address","internalType":"address"}],"outputs":[],"stateMutability":"nonpayable"},{"type":"function","name":"owner","inputs":[],"outputs":[{"name":"","type":"address","internalType":"address"}],"stateMutability":"view"},{"type":"function","name":"proxiableUUID","inputs":[],"outputs":[{"name":"","type":"bytes32","internalType":"bytes32"}],"stateMutability":"view"},{"type":"function","name":"readAllFeedback","inputs":[{"name":"agentId","type":"uint256","internalType":"uint256"},{"name":"clientAddresses","type":"address[]","internalType":"address[]"},{"name":"tag1","type":"string","internalType":"string"},{"name":"tag2","type":"string","internalType":"string"},{"name":"includeRevoked","type":"bool","internalType":"bool"}],"outputs":[{"name":"clients","type":"address[]","internalType":"address[]"},{"name":"feedbackIndexes","type":"uint64[]","internalType":"uint64[]"},{"name":"values","type":"int128[]","internalType":"int128[]"},{"name":"valueDecimals","type":"uint8[]","internalType":"uint8[]"},{"name":"tag1s","type":"string[]","internalType":"string[]"},{"name":"tag2s","type":"string[]","internalType":"string[]"},{"name":"revokedStatuses","type":"bool[]","internalType":"bool[]"}],"stateMutability":"view"},{"type":"function","name":"readFeedback","inputs":[{"name":"agentId","type":"uint256","internalType":"uint256"},{"name":"clientAddress","type":"address","internalType":"address"},{"name":"feedbackIndex","type":"uint64","internalType":"uint64"}],"outputs":[{"name":"value","type":"int128","internalType":"int128"},{"name":"valueDecimals","type":"uint8","internalType":"uint8"},{"name":"tag1","type":"string","internalType":"string"},{"name":"tag2","type":"string","internalType":"string"},{"name":"isRevoked","type":"bool","internalType":"bool"}],"stateMutability":"view"},{"type":"function","name":"renounceOwnership","inputs":[],"outputs":[],"stateMutability":"nonpayable"},{"type":"function","name":"revokeFeedback","inputs":[{"name":"agentId","type":"uint256","internalType":"uint256"},{"name":"feedbackIndex","type":"uint64","internalType":"uint64"}],"outputs":[],"stateMutability":"nonpayable"},{"type":"function","name":"transferOwnership","inputs":[{"name":"newOwner","type":"address","internalType":"address"}],"outputs":[],"stateMutability":"nonpayable"},{"type":"function","name":"upgradeToAndCall","inputs":[{"name":"newImplementation","type":"address","internalType":"address"},{"name":"data","type":"bytes","internalType":"bytes"}],"outputs":[],"stateMutability":"payable"},{"type":"event","name":"FeedbackRevoked","inputs":[{"name":"agentId","type":"uint256","indexed":true,"internalType":"uint256"},{"name":"clientAddress","type":"address","indexed":true,"internalType":"address"},{"name":"feedbackIndex","type":"uint64","indexed":true,"internalType":"uint64"}],"anonymous":false},{"type":"event","name":"Initialized","inputs":[{"name":"version","type":"uint64","indexed":false,"internalType":"uint64"}],"anonymous":false},{"type":"event","name":"NewFeedback","inputs":[{"name":"agentId","type":"uint256","indexed":true,"internalType":"uint256"},{"name":"clientAddress","type":"address","indexed":true,"internalType":"address"},{"name":"feedbackIndex","type":"uint64","indexed":false,"internalType":"uint64"},{"name":"value","type":"int128","indexed":false,"internalType":"int128"},{"name":"valueDecimals","type":"uint8","indexed":false,"internalType":"uint8"},{"name":"indexedTag1","type":"string","indexed":true,"internalType":"string"},{"name":"tag1","type":"string","indexed":false,"internalType":"string"},{"name":"tag2","type":"string","indexed":false,"internalType":"string"},{"name":"endpoint","type":"string","indexed":false,"internalType":"string"},{"name":"feedbackURI","type":"string","indexed":false,"internalType":"string"},{"name":"feedbackHash","type":"bytes32","indexed":false,"internalType":"bytes32"}],"anonymous":false},{"type":"event","name":"OwnershipTransferred","inputs":[{"name":"previousOwner","type":"address","indexed":true,"internalType":"address"},{"name":"newOwner","type":"address","indexed":true,"internalType":"address"}],"anonymous":false},{"type":"event","name":"ResponseAppended","inputs":[{"name":"agentId","type":"uint256","indexed":true,"internalType":"uint256"},{"name":"clientAddress","type":"address","indexed":true,"internalType":"address"},{"name":"feedbackIndex","type":"uint64","indexed":false,"internalType":"uint64"},{"name":"responder","type":"address","indexed":true,"internalType":"address"},{"name":"responseURI","type":"string","indexed":false,"internalType":"string"},{"name":"responseHash","type":"bytes32","indexed":false,"internalType":"bytes32"}],"anonymous":false},{"type":"event","name":"Upgraded","inputs":[{"name":"implementation","type":"address","indexed":true,"internalType":"address"}],"anonymous":false},{"type":"error","name":"AddressEmptyCode","inputs":[{"name":"target","type":"address","internalType":"address"}]},{"type":"error","name":"ERC1967InvalidImplementation","inputs":[{"name":"implementation","type":"address","internalType":"address"}]},{"type":"error","name":"ERC1967NonPayable","inputs":[]},{"type":"error","name":"FailedCall","inputs":[]},{"type":"error","name":"InvalidInitialization","inputs":[]},{"type":"error","name":"NotInitializing","inputs":[]},{"type":"error","name":"OwnableInvalidOwner","inputs":[{"name":"owner","type":"address","internalType":"address"}]},{"type":"error","name":"OwnableUnauthorizedAccount","inputs":[{"name":"account","type":"address","internalType":"address"}]},{"type":"error","name":"UUPSUnauthorizedCallContext","inputs":[]},{"type":"error","name":"UUPSUnsupportedProxiableUUID","inputs":[{"name":"slot","type":"bytes32","internalType":"bytes32"}]}],"bytecode":{"object":"0x60a06040523461003e5761001161004d565b610019610043565b614db06100a882396080518181816144bb0152818161452001526146c70152614db090f35b610049565b60405190565b5f80fd5b610055610099565b565b60018060a01b031690565b90565b61007961007461007e92610057565b610062565b610057565b90565b61008a90610065565b90565b61009690610081565b90565b6100a23061008d565b60805256fe6102c06040526004361015610014575b611222565b61001e5f3561013d565b80630d8e6e2c14610138578063232b0810146101335780633c036a7e1461012e57806342dd519c146101295780634ab3ca99146101245780634f1ef2861461011f57806352d1902d1461011a5780636e04cacd14610115578063715018a61461011057806381bbba581461010b5780638da5cb5b14610106578063ad3cb1cc14610101578063bc4d861b146100fc578063c2349ab2146100f7578063c4d66de8146100f2578063d9d84224146100ed578063f2d81759146100e85763f2fde38b0361000f576111ef565b6111b9565b61112b565b610cc8565b610c70565b610bcc565b610b97565b610ac7565b610a66565b61096b565b610932565b61083c565b6107f0565b61069a565b610638565b610538565b61035b565b6101cb565b60e01c90565b60405190565b5f80fd5b5f80fd5b5f91031261015b57565b61014d565b5190565b60209181520190565b90825f9392825e0152565b601f801991011690565b6101a16101aa6020936101af9361019881610160565b93848093610164565b9586910161016d565b610178565b0190565b6101c89160208201915f818403910152610182565b90565b346101fb576101db366004610151565b6101f76101e6611276565b6101ee610143565b918291826101b3565b0390f35b610149565b5f80fd5b90565b61021081610204565b0361021757565b5f80fd5b9050359061022882610207565b565b60018060a01b031690565b61023e9061022a565b90565b61024a81610235565b0361025157565b5f80fd5b9050359061026282610241565b565b67ffffffffffffffff1690565b61027a81610264565b0361028157565b5f80fd5b9050359061029282610271565b565b90916060828403126102c9576102c66102af845f850161021b565b936102bd8160208601610255565b93604001610285565b90565b61014d565b600f0b90565b6102dd906102ce565b9052565b60ff1690565b6102f0906102e1565b9052565b151590565b610302906102f4565b9052565b95949293610343876103599661033660809661032c610351975f60a087019601906102d4565b60208c01906102e7565b89820360408b0152610182565b908782036060890152610182565b9401906102f9565b565b346103905761038c610377610371366004610294565b9161165b565b91610383959395610143565b95869586610306565b0390f35b610149565b61039e816102ce565b036103a557565b5f80fd5b905035906103b682610395565b565b6103c1816102e1565b036103c857565b5f80fd5b905035906103d9826103b8565b565b5f80fd5b5f80fd5b5f80fd5b909182601f830112156104215781359167ffffffffffffffff831161041c57602001926001830284011161041757565b6103e3565b6103df565b6103db565b90565b61043281610426565b0361043957565b5f80fd5b9050359061044a82610429565b565b6101008183031261052e57610463825f830161021b565b9261047183602084016103a9565b9261047f81604085016103cc565b92606081013567ffffffffffffffff811161052957826104a09183016103e7565b929093608083013567ffffffffffffffff811161052457826104c39185016103e7565b92909360a081013567ffffffffffffffff811161051f57826104e69183016103e7565b92909360c083013567ffffffffffffffff811161051a5761050c836105179286016103e7565b93909460e00161043d565b90565b610200565b610200565b610200565b610200565b61014d565b5f0190565b346105765761056061054b36600461044c565b9a99909998919897929796939695949561213e565b610568610143565b8061057281610533565b0390f35b610149565b9060208282031261059457610591915f0161021b565b90565b61014d565b5190565b60209181520190565b60200190565b6105b590610235565b9052565b906105c6816020936105ac565b0190565b60200190565b906105ed6105e76105e084610599565b809361059d565b926105a6565b905f5b8181106105fd5750505090565b90919261061661061060019286516105b9565b946105ca565b91019190916105f0565b6106359160208201915f8184039101526105d0565b90565b346106685761066461065361064e36600461057b565b6124e5565b61065b610143565b91829182610620565b0390f35b610149565b91906040838203126106955780610689610692925f860161021b565b93602001610285565b90565b61014d565b346106c9576106b36106ad36600461066d565b9061258f565b6106bb610143565b806106c581610533565b0390f35b610149565b5f80fd5b634e487b7160e01b5f52604160045260245ffd5b906106f090610178565b810190811067ffffffffffffffff82111761070a57604052565b6106d2565b9061072261071b610143565b92836106e6565b565b67ffffffffffffffff81116107425761073e602091610178565b0190565b6106d2565b90825f939282370152565b9092919261076761076282610724565b61070f565b938185526020850190828401116107835761078192610747565b565b6106ce565b9080601f830112156107a6578160206107a393359101610752565b90565b6103db565b9190916040818403126107eb576107c4835f8301610255565b92602082013567ffffffffffffffff81116107e6576107e39201610788565b90565b610200565b61014d565b6108046107fe3660046107ab565b906126d7565b61080c610143565b8061081681610533565b0390f35b61082390610426565b9052565b919061083a905f6020850194019061081a565b565b3461086c5761084c366004610151565b610868610857612752565b61085f610143565b91829182610827565b0390f35b610149565b909182601f830112156108ab5781359167ffffffffffffffff83116108a65760200192602083028401116108a157565b6103e3565b6103df565b6103db565b9060808282031261090b576108c7815f840161021b565b926108d58260208501610255565b926108e38360408301610285565b92606082013567ffffffffffffffff8111610906576109029201610871565b9091565b610200565b61014d565b61091990610264565b9052565b9190610930905f60208501940190610910565b565b34610966576109626109516109483660046108b0565b93929092612816565b610959610143565b9182918261091d565b0390f35b610149565b346109995761097b366004610151565b610983612a24565b61098b610143565b8061099581610533565b0390f35b610149565b919091608081840312610a2f576109b7835f830161021b565b92602082013567ffffffffffffffff8111610a2a57816109d8918401610871565b929093604082013567ffffffffffffffff8111610a2557836109fb9184016103e7565b929093606082013567ffffffffffffffff8111610a2057610a1c92016103e7565b9091565b610200565b610200565b610200565b61014d565b604090610a5d610a649496959396610a5360608401985f850190610910565b60208301906102d4565b01906102e7565b565b34610aa057610a9c610a88610a7c36600461099e565b95949094939193612ebe565b610a93939193610143565b93849384610a34565b0390f35b610149565b610aae90610235565b9052565b9190610ac5905f60208501940190610aa5565b565b34610af757610ad7366004610151565b610af3610ae2613399565b610aea610143565b91829182610ab2565b0390f35b610149565b67ffffffffffffffff8111610b1a57610b16602091610178565b0190565b6106d2565b90610b31610b2c83610afc565b61070f565b918252565b5f7f352e302e30000000000000000000000000000000000000000000000000000000910152565b610b676005610b1f565b90610b7460208301610b36565b565b610b7e610b5d565b90565b610b89610b76565b90565b610b94610b81565b90565b34610bc757610ba7366004610151565b610bc3610bb2610b8c565b610bba610143565b918291826101b3565b0390f35b610149565b34610bfc57610bdc366004610151565b610bf8610be76133b7565b610bef610143565b91829182610ab2565b0390f35b610149565b9160a083830312610c6b57610c18825f850161021b565b92610c268360208301610255565b92610c348160408401610285565b92606083013567ffffffffffffffff8111610c6657610c5883610c639286016103e7565b93909460800161043d565b90565b610200565b61014d565b34610ca557610c8f610c83366004610c01565b9493909392919261354e565b610c97610143565b80610ca181610533565b0390f35b610149565b90602082820312610cc357610cc0915f01610255565b90565b61014d565b34610cf657610ce0610cdb366004610caa565b61396f565b610ce8610143565b80610cf281610533565b0390f35b610149565b610d04816102f4565b03610d0b57565b5f80fd5b90503590610d1c82610cfb565b565b9060a082820312610dbc57610d35815f840161021b565b92602083013567ffffffffffffffff8111610db75782610d56918501610871565b929093604081013567ffffffffffffffff8111610db25782610d799183016103e7565b929093606083013567ffffffffffffffff8111610dad57610d9f83610daa9286016103e7565b939094608001610d0f565b90565b610200565b610200565b610200565b61014d565b5190565b60209181520190565b60200190565b610ddd90610264565b9052565b90610dee81602093610dd4565b0190565b60200190565b90610e15610e0f610e0884610dc1565b8093610dc5565b92610dce565b905f5b818110610e255750505090565b909192610e3e610e386001928651610de1565b94610df2565b9101919091610e18565b5190565b60209181520190565b60200190565b610e64906102ce565b9052565b90610e7581602093610e5b565b0190565b60200190565b90610e9c610e96610e8f84610e48565b8093610e4c565b92610e55565b905f5b818110610eac5750505090565b909192610ec5610ebf6001928651610e68565b94610e79565b9101919091610e9f565b5190565b60209181520190565b60200190565b610eeb906102e1565b9052565b90610efc81602093610ee2565b0190565b60200190565b90610f23610f1d610f1684610ecf565b8093610ed3565b92610edc565b905f5b818110610f335750505090565b909192610f4c610f466001928651610eef565b94610f00565b9101919091610f26565b5190565b60209181520190565b60200190565b60209181520190565b610f91610f9a602093610f9f93610f8881610160565b93848093610f69565b9586910161016d565b610178565b0190565b90610fad91610f72565b90565b60200190565b90610fca610fc383610f56565b8092610f5a565b9081610fdb60208302840194610f63565b925f915b838310610fee57505050505090565b9091929394602061101061100a83856001950387528951610fa3565b97610fb0565b9301930191939290610fdf565b5190565b60209181520190565b60200190565b611039906102f4565b9052565b9061104a81602093611030565b0190565b60200190565b9061107161106b6110648461101d565b8093611021565b9261102a565b905f5b8181106110815750505090565b90919261109a611094600192865161103d565b9461104e565b9101919091611074565b959261111a946110f06110fe926110e261110c966110d38c6111289e9c9860e08201915f8184039101526105d0565b908c6020818403910152610df8565b908a820360408c0152610e7f565b9088820360608a0152610f06565b908682036080880152610fb6565b9084820360a0860152610fb6565b9160c0818403910152611054565b90565b346111875761114d61113e366004610d1e565b96959095949194939293613c9e565b61020051610180519061118361014051916101e051936101a051936101605195610220519561117a610143565b978897886110a4565b0390f35b610149565b91906040838203126111b457806111a86111b1925f860161021b565b93602001610255565b90565b61014d565b346111ea576111e66111d56111cf36600461118c565b906143d9565b6111dd610143565b9182918261091d565b0390f35b610149565b3461121d57611207611202366004610caa565b61446f565b61120f610143565b8061121981610533565b0390f35b610149565b5f80fd5b606090565b5f7f322e302e30000000000000000000000000000000000000000000000000000000910152565b61125c6005610b1f565b906112696020830161122b565b565b611273611252565b90565b61127e611226565b5061128761126b565b90565b5f90565b5f90565b5f90565b90565b90565b6112b06112ab6112b592611296565b611299565b610264565b90565b5f7f696e646578206d757374206265203e2030000000000000000000000000000000910152565b6112ec6011602092610164565b6112f5816112b8565b0190565b61130e9060208101905f8183039101526112df565b90565b1561131857565b611320610143565b62461bcd60e51b815280611336600482016112f9565b0390fd5b61134e61134961135392610204565b611299565b610204565b90565b906113609061133a565b5f5260205260405f2090565b61138061137b6113859261022a565b611299565b61022a565b90565b6113919061136c565b90565b61139d90611388565b90565b906113aa90611394565b5f5260205260405f2090565b5f1c90565b67ffffffffffffffff1690565b6113d46113d9916113b6565b6113bb565b90565b6113e690546113c8565b90565b5f7f696e646578206f7574206f6620626f756e647300000000000000000000000000910152565b61141d6013602092610164565b611426816113e9565b0190565b61143f9060208101905f818303910152611410565b90565b1561144957565b611451610143565b62461bcd60e51b8152806114676004820161142a565b0390fd5b906114759061133a565b5f5260205260405f2090565b9061148b90611394565b5f5260205260405f2090565b6114ab6114a66114b092610264565b611299565b610264565b90565b906114bd90611497565b5f5260205260405f2090565b90565b600f0b90565b6114de6114e3916113b6565b6114cc565b90565b6114f090546114d2565b90565b60801c90565b60ff1690565b61150b611510916114f3565b6114f9565b90565b61151d90546114ff565b90565b60881c90565b60ff1690565b61153861153d91611520565b611526565b90565b61154a905461152c565b90565b634e487b7160e01b5f52602260045260245ffd5b9060016002830492168015611581575b602083101461157c57565b61154d565b91607f1691611571565b5f5260205f2090565b905f92918054906115ae6115a783611561565b8094610f69565b916001811690815f1461160557506001146115c9575b505050565b6115d6919293945061158b565b915f925b8184106115ed57505001905f80806115c4565b600181602092959395548486015201910192906115da565b92949550505060ff19168252151560200201905f80806115c4565b9061162a91611594565b90565b9061164d6116469261163d610143565b93848092611620565b03836106e6565b565b6116589061162d565b90565b91611703611708926116fe61170d9561167261128a565b5061167b61128e565b50611684611226565b5061168d611226565b50611696611292565b505f6116a061447a565b6116bc876116b66116b08561129c565b91610264565b11611311565b6116f8876116f16116eb6116e66116e16116da600188018a90611356565b8b906113a0565b6113dc565b610264565b91610264565b1115611442565b0161146b565b611481565b6114b3565b6114c9565b906117195f83016114e6565b916117255f8201611513565b92600182019261174e6117486117405f600287019601611540565b93969561164f565b9361164f565b9190565b90565b61176961176461176e92611752565b611299565b6102e1565b90565b5f7f746f6f206d616e7920646563696d616c73000000000000000000000000000000910152565b6117a56011602092610164565b6117ae81611771565b0190565b6117c79060208101905f818303910152611798565b90565b156117d157565b6117d9610143565b62461bcd60e51b8152806117ef600482016117b2565b0390fd5b90565b61180a61180561180f926117f3565b611299565b6102ce565b90565b61182b6f4b3b4ca85a86c47a098a2240000000006117f6565b90565b634e487b7160e01b5f52601160045260245ffd5b61184b906102ce565b6f7fffffffffffffffffffffffffffffff198114611868575f0390565b61182e565b5f7f76616c756520746f6f206c617267650000000000000000000000000000000000910152565b6118a1600f602092610164565b6118aa8161186d565b0190565b6118c39060208101905f818303910152611894565b90565b156118cd57565b6118d5610143565b62461bcd60e51b8152806118eb600482016118ae565b0390fd5b60018060a01b031690565b61190661190b916113b6565b6118ef565b90565b61191890546118fa565b90565b6119249061136c565b90565b6119309061191b565b90565b61193c90611388565b90565b60e01b90565b9050519061195282610cfb565b565b9060208282031261196d5761196a915f01611945565b90565b61014d565b61197b90610204565b9052565b9160206119a092949361199960408201965f830190610aa5565b0190611972565b565b6119aa610143565b3d5f823e3d90fd5b5f7f53656c662d666565646261636b206e6f7420616c6c6f77656400000000000000910152565b6119e66019602092610164565b6119ef816119b2565b0190565b611a089060208101905f8183039101526119d9565b90565b15611a1257565b611a1a610143565b62461bcd60e51b815280611a30600482016119f3565b0390fd5b611a3d90610264565b67ffffffffffffffff8114611a525760010190565b61182e565b5f1b90565b90611a6f67ffffffffffffffff91611a57565b9181191691161790565b90565b90611a91611a8c611a9892611497565b611a79565b8254611a5c565b9055565b611aa660a061070f565b90565b90611ab3906102ce565b9052565b90611ac1906102e1565b9052565b90611acf906102f4565b9052565b90929192611ae8611ae382610afc565b61070f565b93818552602085019082840111611b0457611b0292610747565b565b6106ce565b611b14913691611ad3565b90565b52565b611b2490516102ce565b90565b90611b426fffffffffffffffffffffffffffffffff91611a57565b9181191691161790565b611b60611b5b611b65926102ce565b611299565b6102ce565b90565b90565b90611b80611b7b611b8792611b4c565b611b68565b8254611b27565b9055565b611b9590516102e1565b90565b60801b90565b90611bad60ff60801b91611b98565b9181191691161790565b611bcb611bc6611bd0926102e1565b611299565b6102e1565b90565b90565b90611beb611be6611bf292611bb7565b611bd3565b8254611b9e565b9055565b611c0090516102f4565b90565b60881b90565b90611c1860ff60881b91611c03565b9181191691161790565b611c2b906102f4565b90565b90565b90611c46611c41611c4d92611c22565b611c2e565b8254611c09565b9055565b5190565b601f602091010490565b1b90565b91906008611c7e910291611c785f1984611c5f565b92611c5f565b9181191691161790565b90565b9190611ca1611c9c611ca99361133a565b611c88565b908354611c63565b9055565b5f90565b611cc391611cbd611cad565b91611c8b565b565b5f5b828110611cd357505050565b80611ce25f6001938501611cb1565b01611cc7565b9190601f8111611cf8575b505050565b818111611d05575b611cf3565b611d1a611d14611d389461158b565b91611c55565b916020611d2682611c55565b9110611d40575b809101910390611cc5565b5f8080611d00565b505f611d2d565b1c90565b90611d5b905f1990600802611d47565b191690565b81611d6a91611d4b565b906002021790565b90611d7c81610160565b9067ffffffffffffffff8211611e3c57611da082611d9a8554611561565b85611ce8565b602090601f8311600114611dd457918091611dc3935f92611dc8575b5050611d60565b90555b565b90915001515f80611dbc565b601f19831691611de38561158b565b925f5b818110611e2457509160029391856001969410611e0a575b50505002019055611dc6565b611e1a910151601f841690611d4b565b90555f8080611dfe565b91936020600181928787015181550195019201611de6565b6106d2565b90611e4b91611d72565b565b90611ec160806002611ec794611e705f8201611e6a5f8801611b1a565b90611b6b565b611e885f8201611e8260208801611b8b565b90611bd6565b611ea05f8201611e9a60408801611bf6565b90611c31565b611eb960018201611eb360608801611c51565b90611e41565b019201611c51565b90611e41565b565b90611ed391611e4d565b565b90611edf9061133a565b5f5260205260405f2090565b90611ef590611394565b5f5260205260405f2090565b611f0d611f12916113b6565b611526565b90565b611f1f9054611f01565b90565b90611f2c9061133a565b5f5260205260405f2090565b90565b5f5260205f2090565b634e487b7160e01b5f52603260045260245ffd5b5490565b5f5260205f2090565b611f6e81611f58565b821015611f8857611f80600191611f3b565b910201905f90565b611f44565b91906008611fad910291611fa760018060a01b0384611c5f565b92611c5f565b9181191691161790565b90565b9190611fd0611fcb611fd893611394565b611fb7565b908354611f8d565b9055565b908154916801000000000000000083101561200c578261200491600161200a95018155611f65565b90611fba565b565b6106d2565b9061201d60ff91611a57565b9181191691161790565b9061203c61203761204392611c22565b611c2e565b8254612011565b9055565b905090565b90918261205c8161206393612047565b8093610747565b0190565b90916120729261204c565b90565b612089612080610143565b92839283612067565b03902090565b91906120a9816120a2816120ae95610164565b8095610747565b610178565b0190565b9c9b999661213c9b9661210a8f93612126986121349c986120fd60e09f996120f36121189a6120e96101008c01975f8d0190610910565b60208b01906102d4565b60408901906102e7565b868303606088015261208f565b92608081850391015261208f565b918b830360a08d015261208f565b9188830360c08a015261208f565b94019061081a565b565b98909496939a92999195976121678761216061215a6012611755565b916102e1565b11156117ca565b8561218961218361217e612179611812565b611842565b6102ce565b916102ce565b1215806123fe575b61219a906118c6565b6121b36121ae6121a95f61190e565b611927565b611933565b9460208b63d95e72be976121da3392996121e56121ce610143565b9b8c958694859461193f565b84526004840161197f565b03915afa80156123f9578d965f916123cb575b5015612203906102f4565b61220c90611a0b565b61221461447a565b9a8b6001018161222391611356565b3361222d916113a0565b612236816113dc565b61223f90611a34565b908161224a91611a7c565b9b8d8c8a918d8d91908c9093925f90612261611a9c565b965f88019061226f91611aa9565b602087019061227d91611ab7565b604086019061228b91611ac5565b61229491611b09565b60608401906122a291611b17565b6122ab91611b09565b60808201906122b991611b17565b8d825f01846122c79161146b565b336122d191611481565b906122db916114b3565b906122e591611ec9565b80600601826122f391611ed5565b336122fd91611eeb565b61230690611f15565b15612310906102f4565b612382575b5099339b9798998d979d9e90919293949596977f6a4a61743519c9d648a14e6493f47dbe3ff1aa29e7785c96c8326a205e58febc9c6123539061133a565b9d61235d90611394565b9e61236791612075565b9e612370610143565b9b8c9b61237d9b8d6120b2565b0390a4565b806123a661239f61239a60056123c595018690611f22565b611f38565b3390611fdc565b6123c06123b96006600193018590611ed5565b3390611eeb565b612027565b5f612315565b6123ec915060203d81116123f2575b6123e481836106e6565b810190611954565b5f6121f8565b503d6123da565b6119a2565b5061219a8661241c612416612411611812565b6102ce565b916102ce565b13159050612191565b606090565b5490565b60209181520190565b5f5260205f2090565b61244a90546118fa565b90565b60010190565b9061247061246a6124638461242a565b809361242e565b92612437565b905f5b8181106124805750505090565b9091926124a061249a60019261249587612440565b6105b9565b9461244d565b9101919091612473565b906124b491612453565b90565b906124d76124d0926124c7610143565b938480926124aa565b03836106e6565b565b6124e2906124b7565b90565b61250561250a916124f4612425565b5060056124ff61447a565b01611f22565b6124d9565b90565b5f7f416c7265616479207265766f6b65640000000000000000000000000000000000910152565b612541600f602092610164565b61254a8161250d565b0190565b6125639060208101905f818303910152612534565b90565b1561256d57565b612575610143565b62461bcd60e51b81528061258b6004820161254e565b0390fd5b6125ab826125a561259f5f61129c565b91610264565b11611311565b6126586125b661447a565b6125f2846125eb6125e56125e06125db6125d4600188018a90611356565b33906113a0565b6113dc565b610264565b91610264565b1115611442565b61262e6126296126235f61261d61261661260f8388018a9061146b565b3390611481565b89906114b3565b01611540565b156102f4565b612566565b5f61265261264b6126448360019501879061146b565b3390611481565b86906114b3565b01611c31565b903361269661269061268a7f25156fd3288212246d8b008d5921fde376c71ed14ac2e072a506eb06fde6d09d9561133a565b92611394565b92611497565b9261269f610143565b806126a981610533565b0390a4565b906126c0916126bb6144aa565b6126c2565b565b906126d5916126d08161455c565b6145b8565b565b906126e1916126ae565b565b5f90565b6126f8906126f36146b6565b612746565b90565b90565b61271261270d612717926126fb565b611a57565b610426565b90565b6127437f360894a13ba1a3210667c828492db98dca3e2076cc3735a920a3ca505d382bbc6126fe565b90565b5061274f61271a565b90565b61276261275d6126e3565b6126e7565b90565b5f90565b61277d61277861278292611296565b611299565b61022a565b90565b61278e90612769565b90565b90565b6127a86127a36127ad92612791565b611299565b610264565b90565b6127bc6127c291610264565b91610264565b019067ffffffffffffffff82116127d557565b61182e565b60016127e69101610204565b90565b906127f382610599565b811015612804576020809102010190565b611f44565b6128139051610235565b90565b939092612821612765565b9361282a61447a565b938161284661284061283b5f612785565b610235565b91610235565b145f1461294857505061286961286460058596989795018590611f22565b6124d9565b92612872611cad565b965b8761288f61288961288488610599565b610204565b91610204565b101561293e576128c76128c26128a9600189018590611356565b6128bc6128b7898d906127e9565b612809565b906113a0565b6113dc565b966128d26001612794565b915b826128e76128e18b610264565b91610264565b116129265761291a612920916129148c61290a61290589928d6127e9565b612809565b878a918c93614736565b906127b0565b92611a34565b916128d4565b969297509761293591506127da565b96959094612874565b965050505050505b565b80979692939491959761296361295d5f61129c565b91610264565b145f146129e6575061298661297f600161298b93018490611356565b86906113a0565b6113dc565b946129966001612794565b965b876129ab6129a589610264565b91610264565b116129d8576129cc6129d2916129c685898c89918b93614736565b906127b0565b97611a34565b96612998565b96509450505050505b612946565b9190506129f99596509390919293614736565b906129e1565b612a076148d3565b612a0f612a11565b565b612a22612a1d5f612785565b614921565b565b612a2c6129ff565b565b5090565b612a46612a41612a4b92611296565b611299565b610204565b90565b5f7f636c69656e744164647265737365732072657175697265640000000000000000910152565b612a826018602092610164565b612a8b81612a4e565b0190565b612aa49060208101905f818303910152612a75565b90565b67ffffffffffffffff8111612abf5760208091020190565b6106d2565b90929192612ad9612ad482612aa7565b61070f565b9381855260208086019202830192818411612b1657915b838310612afd5750505050565b60208091612b0b8486610255565b815201920191612af0565b6103e3565b612b26913691612ac4565b90565b612b325f610b1f565b90565b612b3d612b29565b90565b60200190565b5190565b91565b612b58913691610752565b90565b5f90565b67ffffffffffffffff8111612b745760200290565b6106d2565b612b85612b8a91612b5f565b61070f565b90565b369037565b90612bb0612b9f83612b79565b92612baa8491612b5f565b90612b8d565b565b612bbc6013612b92565b90565b90565b60209181520190565b905f9291805490612be5612bde83611561565b8094612bc2565b916001811690815f14612c3c5750600114612c00575b505050565b612c0d9192939450611f5c565b915f925b818410612c2457505001905f8080612bfb565b60018160209295939554848601520191019290612c11565b92949550505060ff19168252151560200201905f8080612bfb565b90612c6191612bcb565b90565b90612c84612c7d92612c74610143565b93848092612c57565b03836106e6565b565b612c8f90612c64565b90565b612c9e612ca4916102e1565b916102e1565b90039060ff8211612cb157565b61182e565b612cca612cc5612ccf926102e1565b611299565b610204565b90565b612cdb90610204565b604d8111612ce957600a0a90565b61182e565b90565b612d05612d00612d0a92610204565b611299565b612cee565b90565b612d21612d1c612d26926102ce565b611299565b612cee565b90565b612d38612d3e91939293612cee565b92612cee565b91612d4a838202612cee565b92600160ff1b81145f831216612d6d578184051490151715612d6857565b61182e565b61182e565b50601390565b90612d8282612d72565b811015612d90576020020190565b611f44565b612d9f9051610264565b90565b90612dac90610264565b9052565b612dbf612dc591939293612cee565b92612cee565b808301925f82851215818312169285129112151617612de057565b61182e565b612df9612df4612dfe92611296565b611299565b6102ce565b90565b612e15612e10612e1a92611296565b611299565b6102e1565b90565b612e26906102e1565b60ff8114612e345760010190565b61182e565b612e4d612e48612e5292610264565b611299565b610204565b90565b634e487b7160e01b5f52601260045260245ffd5b612e75612e7b91612cee565b91612cee565b908115612e9d5760015f038214600160ff1b821416612e98570590565b61182e565b612e55565b612eb6612eb1612ebb92612cee565b611299565b6102ce565b90565b949290939193612ecc612765565b94612ed561128a565b50612ede61128e565b50612ee761447a565b97612ef0612425565b50612efc838390612a2e565b612f0e612f085f612a32565b91610204565b115f1461337357612f56612f50612f2b612f6f94612f7596612b1b565b9a9b9896612f37612b35565b612f49612f4382612b46565b91612b40565b2096612b4a565b90612b4d565b612f68612f6282612b46565b91612b40565b2095612b4a565b90612b4d565b612f87612f8182612b46565b91612b40565b2090612f91612b5b565b96612f9a612bb2565b96612fa3611cad565b995b8a612fc0612fba612fb586610599565b610204565b91610204565b101561322c57612ffb612ff68c612ff0612feb612fe49a9e9a600187018890611356565b92886127e9565b612809565b906113a0565b6113dc565b996130066001612794565b965b8b61301c6130168a92610264565b91610264565b11613214578a61305e6130598f6130529061304c6130476130405f8b018c9061146b565b928c6127e9565b612809565b90611481565b8b906114b3565b6114c9565b6130695f8201611540565b613207578761308061307a8d610426565b91610426565b1415806131c6575b6131b9578761309f6130998b610426565b91610426565b141580613178575b61316b576131649261315d926131516131579361314c61311a5f6131126130fa6130f56130f06130eb60126130e66130e0888c01611513565b91611755565b612c92565b612cb6565b612cd2565b612cf1565b61310d6131088488016114e6565b612d0d565b612d29565b959301611513565b9161314661314061313b61313661313087612cb6565b85612d78565b612d95565b611a34565b93612cb6565b90612d78565b612da2565b90612db0565b92611a34565b975b611a34565b9690613008565b505090966131649061315f565b50886131b26131ac61319461318f60028601612bbf565b612c86565b6131a66131a082612b46565b91612b40565b20610426565b91610426565b14156130a7565b505090966131649061315f565b508a6132006131fa6131e26131dd60018601612bbf565b612c86565b6131f46131ee82612b46565b91612b40565b20610426565b91610426565b1415613088565b505090966131649061315f565b9650979a613223919a506127da565b99969498612fa5565b5050505050945050836132476132415f61129c565b91610264565b1461334d5761325461128e565b61325c612765565b9161326561128e565b5b8061327a6132746012611755565b916102e1565b116132eb5761329a6132958661328f84612cb6565b90612d78565b612d95565b6132ac6132a686610264565b91610264565b116132c0575b6132bb90612e1d565b613266565b915091506132df6132da846132d484612cb6565b90612d78565b612d95565b916132bb8290506132b2565b5092509261334991506133126133449161330c61330788612e39565b612cf1565b90612e69565b61333e61333961333461332f601261332a8a91611755565b612c92565b612cb6565b612cd2565b612cf1565b90612e69565b612ea2565b9190565b925050505f5f9161337061336a6133645f9461129c565b94612de5565b92612e01565b90565b61337b610143565b62461bcd60e51b81528061339160048201612a8f565b0390fd5b5f90565b6133a1613395565b506133b45f6133ae61498d565b0161190e565b90565b6133bf613395565b506133c95f61190e565b90565b5090565b5f7f456d707479205552490000000000000000000000000000000000000000000000910152565b6134046009602092610164565b61340d816133d0565b0190565b6134269060208101905f8183039101526133f7565b90565b1561343057565b613438610143565b62461bcd60e51b81528061344e60048201613411565b0390fd5b9061345c9061133a565b5f5260205260405f2090565b9061347290611394565b5f5260205260405f2090565b9061348890611497565b5f5260205260405f2090565b9061349e9061133a565b5f5260205260405f2090565b906134b490611394565b5f5260205260405f2090565b906134ca90611497565b5f5260205260405f2090565b906134e09061133a565b5f5260205260405f2090565b906134f690611394565b5f5260205260405f2090565b9061350c90611497565b5f5260205260405f2090565b94939160409161354c946135449261353760608a01935f8b0190610910565b88830360208a015261208f565b94019061081a565b565b61366f61365861365161364a6136436002886135f3886135ec6135e68e9f9c9d9e6135dc8f8f6135a96135a36135c1926135e19661359e8d6135986135925f61129c565b91610264565b11611311565b612b4a565b906133cc565b6135bb6135b55f612a32565b91610204565b11613429565b6135d76135cc61447a565b989660018a01611356565b6113a0565b6113dc565b610264565b91610264565b1115611442565b89888c61363361362d61362861362161361a61361360048a018890613452565b8890613468565b859061347e565b3390611eeb565b611f15565b156102f4565b6136cb575b5050500186906134d6565b87906134ec565b8790613502565b33906113a0565b613669613664826113dc565b611a34565b90611a7c565b91926136c6339592966136b46136ae6136a87fb1c6be0b5b8aef6539e2fac0fd131a2faa7b49edf8e505b5eb0ad487d56051d49761133a565b97611394565b97611394565b976136bd610143565b94859485613518565b0390a4565b61372661372d916137216137329561370d6137066137016136fa6136f360038d018b90613494565b85906134aa565b86906134c0565b611f38565b3390611fdc565b61371c60019660048a01613452565b613468565b61347e565b3390611eeb565b612027565b89888c613638565b60401c90565b61374c6137519161373a565b611526565b90565b61375e9054613740565b90565b60401b90565b9061377b68ff000000000000000091613761565b9181191691161790565b9061379a6137956137a192611c22565b611c2e565b8254613767565b9055565b6137af6001612794565b906137b86149b1565b6137c35f8201613754565b8015613853575b613837576137f36137fc926137e1855f8501611a7c565b6137ee60015f8501613785565b613935565b5f809101613785565b6138327fc7f505b2f371ae2175ee4913f4499e1f2633a7b5936321eed1cdaeb6115181d291613829610143565b9182918261091d565b0390a1565b5f63f92ee8a960e01b81528061384f60048201610533565b0390fd5b5061385f5f82016113dc565b61387161386b85610264565b91610264565b10156137ca565b5f7f626164206964656e746974790000000000000000000000000000000000000000910152565b6138ac600c602092610164565b6138b581613878565b0190565b6138ce9060208101905f81830391015261389f565b90565b156138d857565b6138e0610143565b62461bcd60e51b8152806138f6600482016138b9565b0390fd5b9061390b60018060a01b0391611a57565b9181191691161790565b9061392a61392561393192611394565b611fb7565b82546138fa565b9055565b61396d90613942336149da565b6139678161396061395a6139555f612785565b610235565b91610235565b14156138d1565b5f613915565b565b613978906137a5565b565b606090565b606090565b606090565b606090565b606090565b61399c90610204565b5f1981146139aa5760010190565b61182e565b906139c16139bc83612aa7565b61070f565b918252565b369037565b906139f06139d8836139af565b926020806139e68693612aa7565b92019103906139c6565b565b67ffffffffffffffff8111613a0a5760208091020190565b6106d2565b90613a21613a1c836139f2565b61070f565b918252565b90613a4b613a3383613a0f565b92602080613a4186936139f2565b9201910390612b8d565b565b67ffffffffffffffff8111613a655760208091020190565b6106d2565b90613a7c613a7783613a4d565b61070f565b918252565b369037565b90613aab613a9383613a6a565b92602080613aa18693613a4d565b9201910390613a81565b565b67ffffffffffffffff8111613ac55760208091020190565b6106d2565b90613adc613ad783613aad565b61070f565b918252565b369037565b90613b0b613af383613aca565b92602080613b018693613aad565b9201910390613ae1565b565b67ffffffffffffffff8111613b255760208091020190565b6106d2565b90613b3c613b3783613b0d565b61070f565b918252565b606090565b5f5b828110613b5457505050565b602090613b5f613b41565b8184015201613b48565b90613b8e613b7683613b2a565b92602080613b848693613b0d565b9201910390613b46565b565b67ffffffffffffffff8111613ba85760208091020190565b6106d2565b90613bbf613bba83613b90565b61070f565b918252565b369037565b90613bee613bd683613bad565b92602080613be48693613b90565b9201910390613bc4565b565b90613bfa90610235565b9052565b90613c0882610dc1565b811015613c19576020809102010190565b611f44565b90613c2882610e48565b811015613c39576020809102010190565b611f44565b90613c4882610ecf565b811015613c59576020809102010190565b611f44565b90613c6882610f56565b811015613c79576020809102010190565b611f44565b90613c888261101d565b811015613c99576020809102010190565b611f44565b92613dc396959491613da293613dc999613da89660c0526101c0525f610220525f610160525f6101a0525f6101e0525f610140525f610180525f61020052613ce4612425565b61022052613cf061397a565b61016052613cfc61397f565b6101a052613d08613984565b6101e052613d14613989565b61014052613d20613989565b61018052613d2c61398e565b61020052613d3861447a565b60a0525f6102a052613d48612425565b6102a052613d57828290612a2e565b613d69613d635f612a32565b91610204565b115f146143b457613d7991612b1b565b6102a0525b613d86612b35565b613d98613d9282612b46565b91612b40565b2061010052612b4a565b90612b4d565b613dba613db482612b46565b91612b40565b2060e052612b4a565b90612b4d565b613ddb613dd582612b46565b91612b40565b2061012052613de8611cad565b613df0611cad565b915b82613e10613e0a613e056102a051610599565b610204565b91610204565b1015613ffe57613e4f613e4a613e2e600160a0510160c05190611356565b613e44613e3f6102a05188906127e9565b612809565b906113a0565b6113dc565b91613e5a6001612794565b905b81613e6f613e6986610264565b91610264565b11613feb57613eb6613eb1613eaa613e8e5f60a0510160c0519061146b565b613ea4613e9f6102a0518b906127e9565b612809565b90611481565b84906114b3565b6114c9565b613ec36101c051156102f4565b80613fda575b613fcf5761010051613ee5613edf60e051610426565b91610426565b141580613f8c575b613f815761010051613f0a613f0461012051610426565b91610426565b14159081613f3b575b50613f3157613f24613f2b91613993565b915b611a34565b90613e5c565b90613f2b90613f26565b9050613f79613f73613f5b613f566002610120519501612bbf565b612c86565b613f6d613f6782612b46565b91612b40565b20610426565b91610426565b14155f613f13565b5090613f2b90613f26565b5060e051613fc8613fc2613faa613fa560018601612bbf565b612c86565b613fbc613fb682612b46565b91612b40565b20610426565b91610426565b1415613eed565b5090613f2b90613f26565b50613fe65f8201611540565b613ec9565b92505091613ff8906127da565b91613df2565b91506140579061400d816139cb565b6102205261401a81613a26565b6101605261402781613a86565b6101a05261403481613ae6565b6101e05261404181613b69565b6101405261404e81613b69565b61018052613bc9565b610200525f61026052614068611cad565b610260525f61028052614079611cad565b610280525b6102805161409f6140996140946102a051610599565b610204565b91610204565b10156143b2576140e16140dc6140bd600160a0510160c05190611356565b6140d66140d16102a05161028051906127e9565b612809565b906113a0565b6113dc565b610240526140ef6001612794565b6080525b60805161410b61410561024051610264565b91610264565b1161439d5761415761415261414961412a5f60a0510160c0519061146b565b61414361413e6102a05161028051906127e9565b612809565b90611481565b608051906114b3565b6114c9565b6141646101c051156102f4565b8061438c575b614386576101005161418661418060e051610426565b91610426565b141580614343575b61433d57610100516141ab6141a561012051610426565b91610426565b1415806142f9575b6142f3576142b75f6142cf926141f36141db6141d66102a05161028051906127e9565b612809565b6141ee61022051916102605190926127e9565b613bf0565b61421160805161420c6101605191610260519092613bfe565b612da2565b61423761421f8383016114e6565b6142326101a05191610260519092613c1e565b611aa9565b61425d614245838301611513565b6142586101e05191610260519092613c3e565b611ab7565b6142856001820161014051614275610260519261164f565b61427f8383613c5e565b52613c5e565b51506142af600282016101805161429f610260519261164f565b6142a98383613c5e565b52613c5e565b515001611540565b6142ca6102005191610260519092613c7e565b611ac5565b6142db61026051613993565b610260525b6142eb608051611a34565b6080526140f3565b506142e0565b506101205161433661433061431861431360028601612bbf565b612c86565b61432a61432482612b46565b91612b40565b20610426565b91610426565b14156141b3565b506142e0565b5060e05161437f61437961436161435c60018601612bbf565b612c86565b61437361436d82612b46565b91612b40565b20610426565b91610426565b141561418e565b506142e0565b506143985f8201611540565b61416a565b6143a9610280516127da565b6102805261407e565b565b50506143d06143cb600560a0510160c05190611f22565b6124d9565b6102a052613d7e565b614407916143fd614402926143ec612765565b5060016143f761447a565b01611356565b6113a0565b6113dc565b90565b61441b906144166148d3565b61441d565b565b8061443861443261442d5f612785565b610235565b91610235565b146144485761444690614921565b565b61446b6144545f612785565b5f918291631e4fbdf760e01b835260048301610ab2565b0390fd5b6144789061440a565b565b7fa03d7693f2b3746b2d03f163c788147b71aa82854399a21fdf4de143ba77830090565b6144a790611388565b90565b6144b33061449e565b6144e56144df7f0000000000000000000000000000000000000000000000000000000000000000610235565b91610235565b14801561450f575b6144f357565b5f63703e46dd60e11b81528061450b60048201610533565b0390fd5b506145186149e5565b61454a6145447f0000000000000000000000000000000000000000000000000000000000000000610235565b91610235565b14156144ed565b5061455a6148d3565b565b61456590614551565b565b6145709061136c565b90565b61457c90614567565b90565b61458890611388565b90565b9050519061459882610429565b565b906020828203126145b3576145b0915f0161458b565b90565b61014d565b91906145e660206145d06145cb86614573565b61457f565b6352d1902d906145de610143565b93849261193f565b825281806145f660048201610533565b03915afa80915f92614686575b50155f1461463757505090600161461857505b565b614633905f918291634c9c8ce360e01b835260048301610ab2565b0390fd5b928361465261464c61464761271a565b610426565b91610426565b0361466757614662929350614a0b565b614616565b614682845f918291632a87526960e21b835260048301610827565b0390fd5b6146a891925060203d81116146af575b6146a081836106e6565b81019061459a565b905f614603565b503d614696565b6146bf3061449e565b6146f16146eb7f0000000000000000000000000000000000000000000000000000000000000000610235565b91610235565b036146f857565b5f63703e46dd60e11b81528061471060048201610533565b0390fd5b9190811015614724576020020190565b611f44565b3561473381610241565b90565b94939294614742612765565b9561474b61447a565b94614757828290612a2e565b6147696147635f612a32565b91610204565b145f1461483157505061479c614797614790614789600388018590613494565b85906134aa565b85906134c0565b6124d9565b936147a5611cad565b965b876147c26147bc6147b789610599565b610204565b91610204565b10156148275761481b614821916148156148108b61480a6148056147fe6147f76147f060028c018d906134d6565b8d906134ec565b8d90613502565b928d6127e9565b612809565b906113a0565b6113dc565b906127b0565b976127da565b966147a7565b965050505050505b565b939291909461483e611cad565b975b8861485d6148576148528a8a90612a2e565b610204565b91610204565b10156148c6576148ba6148c0916148b46148af8a6148a96148a48f8d9061489b8e6148968f8f8f90600261489192016134d6565b6134ec565b613502565b94919091614714565b614729565b906113a0565b6113dc565b906127b0565b986127da565b97614840565b975050505050505061482f565b6148db613399565b6148f46148ee6148e9614a94565b610235565b91610235565b036148fb57565b61491d614906614a94565b5f91829163118cdaa760e01b835260048301610ab2565b0390fd5b61492961498d565b6149416149375f830161190e565b915f849101613915565b9061497561496f7f8be0079c531659141344cd1fd0a4f28419497f9722a3daafe3b4186f6b6457e093611394565b91611394565b9161497e610143565b8061498881610533565b0390a3565b7f9016d09d72d40fdae2fd8ceac6b6234c7706214fd39c1cd1e609a0528c19930090565b6149b9614aec565b90565b6149cd906149c8614b00565b6149cf565b565b6149d890614b98565b565b6149e3906149bc565b565b6149ed613395565b50614a085f614a026149fd61271a565b614ba3565b0161190e565b90565b90614a1582614ba6565b81614a407fbc7cd75a20ee27fd9adebab32041f755214dbc6bffa90cc0225b39da2e5c2d3b91611394565b90614a49610143565b80614a5381610533565b0390a2614a5f81612b46565b614a71614a6b5f612a32565b91610204565b115f14614a8557614a8191614c36565b505b565b5050614a8f614bfb565b614a83565b614a9c613395565b503390565b90565b614ab8614ab3614abd92614aa1565b611a57565b610426565b90565b614ae97ff0c57e16840df040f15088dc2f81fe391c3923bec73e23a9662efc9c229c6a00614aa4565b90565b614af46126e3565b50614afd614ac0565b90565b614b11614b0b614d09565b156102f4565b614b1757565b5f631afcd79f60e31b815280614b2f60048201610533565b0390fd5b614b4490614b3f614b00565b614b46565b565b80614b61614b5b614b565f612785565b610235565b91610235565b14614b7157614b6f90614921565b565b614b94614b7d5f612785565b5f918291631e4fbdf760e01b835260048301610ab2565b0390fd5b614ba190614b33565b565b90565b803b614bba614bb45f612a32565b91610204565b14614bdc57614bda905f614bd4614bcf61271a565b614ba3565b01613915565b565b614bf7905f918291634c9c8ce360e01b835260048301610ab2565b0390fd5b34614c0e614c085f612a32565b91610204565b11614c1557565b5f63b398979f60e01b815280614c2d60048201610533565b0390fd5b606090565b90614c4a90614c43614c31565b5082614d27565b8080614cc6575b5f14614c64575050614c61614d58565b90565b5f14614c8957614c85905f918291639996b31560e01b835260048301610ab2565b0390fd5b614c91614d40565b614ca3614c9d5f612a32565b91610204565b115f03614d4d575f63d6bda27560e01b815280614cc260048201610533565b0390fd5b50614ccf614d40565b614ce1614cdb5f612a32565b91610204565b118015614cee575b614c51565b50813b614d03614cfd5f612a32565b91610204565b11614ce9565b614d11611292565b50614d245f614d1e6149b1565b01613754565b90565b5f918291614d33611292565b50602082519201905af490565b614d48611cad565b503d90565b6040513d5f823e3d90fd5b614d60614c31565b50604051903d82523d5f602084013e3d602001820160405256fea2646970667358221220e2739bc5b6d157b49f5168ded6598cdf395e3b05a06bec6b98f4181e88ccc8a464736f6c63430008210033","linkReferences":{}},"methodIdentifiers":{"UPGRADE_INTERFACE_VERSION()":"ad3cb1cc","appendResponse(uint256,address,uint64,string,bytes32)":"c2349ab2","getClients(uint256)":"42dd519c","getIdentityRegistry()":"bc4d861b","getLastIndex(uint256,address)":"f2d81759","getResponseCount(uint256,address,uint64,address[])":"6e04cacd","getSummary(uint256,address[],string,string)":"81bbba58","getVersion()":"0d8e6e2c","giveFeedback(uint256,int128,uint8,string,string,string,string,bytes32)":"3c036a7e","initialize(address)":"c4d66de8","owner()":"8da5cb5b","proxiableUUID()":"52d1902d","readAllFeedback(uint256,address[],string,string,bool)":"d9d84224","readFeedback(uint256,address,uint64)":"232b0810","renounceOwnership()":"715018a6","revokeFeedback(uint256,uint64)":"4ab3ca99","transferOwnership(address)":"f2fde38b","upgradeToAndCall(address,bytes)":"4f1ef286"},"id":2}